{
	"contracts/Voting.sol": {
		"Voting": {
			"abi": [
				{
					"constant": true,
					"inputs": [
						{
							"name": "candidate",
							"type": "string"
						}
					],
					"name": "indexOfCandidate",
					"outputs": [
						{
							"name": "",
							"type": "uint256"
						}
					],
					"payable": false,
					"stateMutability": "view",
					"type": "function"
				},
				{
					"constant": true,
					"inputs": [
						{
							"name": "candidate",
							"type": "string"
						}
					],
					"name": "totalVotesFor",
					"outputs": [
						{
							"name": "",
							"type": "uint256"
						}
					],
					"payable": false,
					"stateMutability": "view",
					"type": "function"
				},
				{
					"constant": true,
					"inputs": [],
					"name": "tokensSold",
					"outputs": [
						{
							"name": "",
							"type": "uint256"
						}
					],
					"payable": false,
					"stateMutability": "view",
					"type": "function"
				},
				{
					"constant": true,
					"inputs": [
						{
							"name": "user",
							"type": "address"
						}
					],
					"name": "voterDetails",
					"outputs": [
						{
							"name": "",
							"type": "uint256"
						},
						{
							"name": "",
							"type": "uint256[]"
						}
					],
					"payable": false,
					"stateMutability": "view",
					"type": "function"
				},
				{
					"constant": true,
					"inputs": [],
					"name": "totalTokens",
					"outputs": [
						{
							"name": "",
							"type": "uint256"
						}
					],
					"payable": false,
					"stateMutability": "view",
					"type": "function"
				},
				{
					"constant": true,
					"inputs": [],
					"name": "tokenPrice",
					"outputs": [
						{
							"name": "",
							"type": "uint256"
						}
					],
					"payable": false,
					"stateMutability": "view",
					"type": "function"
				},
				{
					"constant": true,
					"inputs": [],
					"name": "allCandidates",
					"outputs": [
						{
							"name": "",
							"type": "string[]"
						}
					],
					"payable": false,
					"stateMutability": "view",
					"type": "function"
				},
				{
					"constant": false,
					"inputs": [
						{
							"name": "account",
							"type": "address"
						}
					],
					"name": "transferTo",
					"outputs": [],
					"payable": false,
					"stateMutability": "nonpayable",
					"type": "function"
				},
				{
					"constant": false,
					"inputs": [],
					"name": "buy",
					"outputs": [
						{
							"name": "",
							"type": "uint256"
						}
					],
					"payable": true,
					"stateMutability": "payable",
					"type": "function"
				},
				{
					"constant": false,
					"inputs": [
						{
							"name": "candidate",
							"type": "string"
						},
						{
							"name": "votesInTokens",
							"type": "uint256"
						}
					],
					"name": "voteForCandidate",
					"outputs": [],
					"payable": false,
					"stateMutability": "nonpayable",
					"type": "function"
				},
				{
					"constant": true,
					"inputs": [],
					"name": "balanceTokens",
					"outputs": [
						{
							"name": "",
							"type": "uint256"
						}
					],
					"payable": false,
					"stateMutability": "view",
					"type": "function"
				},
				{
					"inputs": [
						{
							"name": "tokens",
							"type": "uint256"
						},
						{
							"name": "pricePerToken",
							"type": "uint256"
						},
						{
							"name": "candidateNames",
							"type": "string[]"
						}
					],
					"payable": false,
					"stateMutability": "nonpayable",
					"type": "constructor"
				}
			],
			"devdoc": {
				"methods": {}
			},
			"evm": {
				"assembly": "    /* \"contracts/Voting.sol\":129:5036  contract Voting {... */\n  mstore(0x40, 0x80)\n    /* \"contracts/Voting.sol\":1632:1840  function Voting(uint tokens, uint pricePerToken, string[] candidateNames) public {... */\n  callvalue\n    /* \"--CODEGEN--\":8:17   */\n  dup1\n    /* \"--CODEGEN--\":5:7   */\n  iszero\n  tag_1\n  jumpi\n    /* \"--CODEGEN--\":30:31   */\n  0x0\n    /* \"--CODEGEN--\":27:28   */\n  dup1\n    /* \"--CODEGEN--\":20:32   */\n  revert\n    /* \"--CODEGEN--\":5:7   */\ntag_1:\n    /* \"contracts/Voting.sol\":1632:1840  function Voting(uint tokens, uint pricePerToken, string[] candidateNames) public {... */\n  pop\n  mload(0x40)\n  sub(codesize, bytecodeSize)\n  dup1\n  bytecodeSize\n  dup4\n  codecopy\n  dup2\n  add\n  dup1\n  0x40\n  mstore\n  tag_2\n  swap2\n  swap1\n  dup2\n  add\n  swap1\n  jump(tag_3)\ntag_2:\n    /* \"contracts/Voting.sol\":1735:1749  candidateNames */\n  dup1\n    /* \"contracts/Voting.sol\":1719:1732  candidateList */\n  0x2\n    /* \"contracts/Voting.sol\":1719:1749  candidateList = candidateNames */\n  swap1\n  dup1\n  mload\n  swap1\n  0x20\n  add\n  swap1\n  tag_6\n  swap3\n  swap2\n  swap1\n  jump\t// in(tag_7)\ntag_6:\n  pop\n    /* \"contracts/Voting.sol\":1769:1775  tokens */\n  dup3\n    /* \"contracts/Voting.sol\":1755:1766  totalTokens */\n  0x3\n    /* \"contracts/Voting.sol\":1755:1775  totalTokens = tokens */\n  dup2\n  swap1\n  sstore\n  pop\n    /* \"contracts/Voting.sol\":1797:1803  tokens */\n  dup3\n    /* \"contracts/Voting.sol\":1781:1794  balanceTokens */\n  0x4\n    /* \"contracts/Voting.sol\":1781:1803  balanceTokens = tokens */\n  dup2\n  swap1\n  sstore\n  pop\n    /* \"contracts/Voting.sol\":1822:1835  pricePerToken */\n  dup2\n    /* \"contracts/Voting.sol\":1809:1819  tokenPrice */\n  0x5\n    /* \"contracts/Voting.sol\":1809:1835  tokenPrice = pricePerToken */\n  dup2\n  swap1\n  sstore\n  pop\n    /* \"contracts/Voting.sol\":1632:1840  function Voting(uint tokens, uint pricePerToken, string[] candidateNames) public {... */\n  pop\n  pop\n  pop\n    /* \"contracts/Voting.sol\":129:5036  contract Voting {... */\n  jump(tag_8)\ntag_7:\n  dup3\n  dup1\n  sload\n  dup3\n  dup3\n  sstore\n  swap1\n  0x0\n  mstore\n  keccak256(0x0, 0x20)\n  swap1\n  dup2\n  add\n  swap3\n  dup3\n  iszero\n  tag_9\n  jumpi\n  swap2\n  0x20\n  mul\n  dup3\n  add\ntag_10:\n  dup3\n  dup2\n  gt\n  iszero\n  tag_11\n  jumpi\n  dup3\n  mload\n  dup3\n  swap1\n  dup1\n  mload\n  swap1\n  0x20\n  add\n  swap1\n  tag_12\n  swap3\n  swap2\n  swap1\n  jump\t// in(tag_13)\ntag_12:\n  pop\n  swap2\n  0x20\n  add\n  swap2\n  swap1\n  0x1\n  add\n  swap1\n  jump(tag_10)\ntag_11:\ntag_9:\n  pop\n  swap1\n  pop\n  tag_14\n  swap2\n  swap1\n  jump\t// in(tag_15)\ntag_14:\n  pop\n  swap1\n  jump\t// out\ntag_13:\n  dup3\n  dup1\n  sload\n  0x1\n  dup2\n  0x1\n  and\n  iszero\n  0x100\n  mul\n  sub\n  and\n  0x2\n  swap1\n  div\n  swap1\n  0x0\n  mstore\n  keccak256(0x0, 0x20)\n  swap1\n  0x1f\n  add\n  0x20\n  swap1\n  div\n  dup2\n  add\n  swap3\n  dup3\n  0x1f\n  lt\n  tag_17\n  jumpi\n  dup1\n  mload\n  not(0xff)\n  and\n  dup4\n  dup1\n  add\n  or\n  dup6\n  sstore\n  jump(tag_16)\ntag_17:\n  dup3\n  dup1\n  add\n  0x1\n  add\n  dup6\n  sstore\n  dup3\n  iszero\n  tag_16\n  jumpi\n  swap2\n  dup3\n  add\ntag_18:\n  dup3\n  dup2\n  gt\n  iszero\n  tag_19\n  jumpi\n  dup3\n  mload\n  dup3\n  sstore\n  swap2\n  0x20\n  add\n  swap2\n  swap1\n  0x1\n  add\n  swap1\n  jump(tag_18)\ntag_19:\ntag_16:\n  pop\n  swap1\n  pop\n  tag_20\n  swap2\n  swap1\n  jump\t// in(tag_21)\ntag_20:\n  pop\n  swap1\n  jump\t// out\ntag_15:\n  tag_22\n  swap2\n  swap1\ntag_23:\n  dup1\n  dup3\n  gt\n  iszero\n  tag_24\n  jumpi\n  0x0\n  dup2\n  dup2\n  tag_25\n  swap2\n  swap1\n  jump\t// in(tag_26)\ntag_25:\n  pop\n  0x1\n  add\n  jump(tag_23)\ntag_24:\n  pop\n  swap1\n  jump\ntag_22:\n  swap1\n  jump\t// out\ntag_21:\n  tag_27\n  swap2\n  swap1\ntag_28:\n  dup1\n  dup3\n  gt\n  iszero\n  tag_29\n  jumpi\n  0x0\n  dup2\n  0x0\n  swap1\n  sstore\n  pop\n  0x1\n  add\n  jump(tag_28)\ntag_29:\n  pop\n  swap1\n  jump\ntag_27:\n  swap1\n  jump\t// out\ntag_26:\n  pop\n  dup1\n  sload\n  0x1\n  dup2\n  0x1\n  and\n  iszero\n  0x100\n  mul\n  sub\n  and\n  0x2\n  swap1\n  div\n  0x0\n  dup3\n  sstore\n  dup1\n  0x1f\n  lt\n  tag_31\n  jumpi\n  pop\n  jump(tag_30)\ntag_31:\n  0x1f\n  add\n  0x20\n  swap1\n  div\n  swap1\n  0x0\n  mstore\n  keccak256(0x0, 0x20)\n  swap1\n  dup2\n  add\n  swap1\n  tag_32\n  swap2\n  swap1\n  jump\t// in(tag_21)\ntag_32:\ntag_30:\n  pop\n  jump\t// out\n    /* \"--CODEGEN--\":22:726   */\ntag_34:\n  0x0\n    /* \"--CODEGEN--\":156:159   */\n  dup3\n    /* \"--CODEGEN--\":149:153   */\n  0x1f\n    /* \"--CODEGEN--\":141:147   */\n  dup4\n    /* \"--CODEGEN--\":137:154   */\n  add\n    /* \"--CODEGEN--\":133:160   */\n  slt\n    /* \"--CODEGEN--\":126:161   */\n  iszero\n    /* \"--CODEGEN--\":123:125   */\n  iszero\n  tag_35\n  jumpi\n    /* \"--CODEGEN--\":174:175   */\n  0x0\n    /* \"--CODEGEN--\":171:172   */\n  dup1\n    /* \"--CODEGEN--\":164:176   */\n  revert\n    /* \"--CODEGEN--\":123:125   */\ntag_35:\n    /* \"--CODEGEN--\":204:210   */\n  dup2\n    /* \"--CODEGEN--\":198:211   */\n  mload\n    /* \"--CODEGEN--\":226:312   */\n  tag_36\n    /* \"--CODEGEN--\":241:311   */\n  tag_37\n    /* \"--CODEGEN--\":304:310   */\n  dup3\n    /* \"--CODEGEN--\":241:311   */\n  jump(tag_38)\ntag_37:\n    /* \"--CODEGEN--\":226:312   */\n  jump(tag_39)\ntag_36:\n    /* \"--CODEGEN--\":217:312   */\n  swap2\n  pop\n    /* \"--CODEGEN--\":329:334   */\n  dup2\n    /* \"--CODEGEN--\":354:360   */\n  dup2\n    /* \"--CODEGEN--\":347:352   */\n  dup4\n    /* \"--CODEGEN--\":340:361   */\n  mstore\n    /* \"--CODEGEN--\":384:388   */\n  0x20\n    /* \"--CODEGEN--\":376:382   */\n  dup5\n    /* \"--CODEGEN--\":372:389   */\n  add\n    /* \"--CODEGEN--\":362:389   */\n  swap4\n  pop\n    /* \"--CODEGEN--\":406:410   */\n  0x20\n    /* \"--CODEGEN--\":401:404   */\n  dup2\n    /* \"--CODEGEN--\":397:411   */\n  add\n    /* \"--CODEGEN--\":390:411   */\n  swap1\n  pop\n    /* \"--CODEGEN--\":459:465   */\n  dup4\n    /* \"--CODEGEN--\":492:493   */\n  0x0\n    /* \"--CODEGEN--\":477:720   */\ntag_40:\n    /* \"--CODEGEN--\":502:508   */\n  dup4\n    /* \"--CODEGEN--\":499:500   */\n  dup2\n    /* \"--CODEGEN--\":496:509   */\n  lt\n    /* \"--CODEGEN--\":477:720   */\n  iszero\n  tag_41\n  jumpi\n    /* \"--CODEGEN--\":578:581   */\n  dup2\n    /* \"--CODEGEN--\":572:582   */\n  mload\n    /* \"--CODEGEN--\":564:570   */\n  dup7\n    /* \"--CODEGEN--\":560:583   */\n  add\n    /* \"--CODEGEN--\":602:656   */\n  tag_43\n    /* \"--CODEGEN--\":652:655   */\n  dup9\n    /* \"--CODEGEN--\":640:650   */\n  dup3\n    /* \"--CODEGEN--\":602:656   */\n  jump(tag_44)\ntag_43:\n    /* \"--CODEGEN--\":597:600   */\n  dup5\n    /* \"--CODEGEN--\":590:657   */\n  mstore\n    /* \"--CODEGEN--\":680:684   */\n  0x20\n    /* \"--CODEGEN--\":675:678   */\n  dup5\n    /* \"--CODEGEN--\":671:685   */\n  add\n    /* \"--CODEGEN--\":664:685   */\n  swap4\n  pop\n    /* \"--CODEGEN--\":708:712   */\n  0x20\n    /* \"--CODEGEN--\":703:706   */\n  dup4\n    /* \"--CODEGEN--\":699:713   */\n  add\n    /* \"--CODEGEN--\":692:713   */\n  swap3\n  pop\n    /* \"--CODEGEN--\":534:720   */\n  pop\n    /* \"--CODEGEN--\":524:525   */\n  0x1\n    /* \"--CODEGEN--\":521:522   */\n  dup2\n    /* \"--CODEGEN--\":517:526   */\n  add\n    /* \"--CODEGEN--\":512:526   */\n  swap1\n  pop\n    /* \"--CODEGEN--\":477:720   */\n  jump(tag_40)\ntag_41:\n    /* \"--CODEGEN--\":481:495   */\n  pop\n    /* \"--CODEGEN--\":116:726   */\n  pop\n  pop\n  pop\n  swap3\n  swap2\n  pop\n  pop\n  jump\n    /* \"--CODEGEN--\":735:1171   */\ntag_44:\n  0x0\n    /* \"--CODEGEN--\":844:847   */\n  dup3\n    /* \"--CODEGEN--\":837:841   */\n  0x1f\n    /* \"--CODEGEN--\":829:835   */\n  dup4\n    /* \"--CODEGEN--\":825:842   */\n  add\n    /* \"--CODEGEN--\":821:848   */\n  slt\n    /* \"--CODEGEN--\":814:849   */\n  iszero\n    /* \"--CODEGEN--\":811:813   */\n  iszero\n  tag_46\n  jumpi\n    /* \"--CODEGEN--\":862:863   */\n  0x0\n    /* \"--CODEGEN--\":859:860   */\n  dup1\n    /* \"--CODEGEN--\":852:864   */\n  revert\n    /* \"--CODEGEN--\":811:813   */\ntag_46:\n    /* \"--CODEGEN--\":892:898   */\n  dup2\n    /* \"--CODEGEN--\":886:899   */\n  mload\n    /* \"--CODEGEN--\":914:975   */\n  tag_47\n    /* \"--CODEGEN--\":929:974   */\n  tag_48\n    /* \"--CODEGEN--\":967:973   */\n  dup3\n    /* \"--CODEGEN--\":929:974   */\n  jump(tag_49)\ntag_48:\n    /* \"--CODEGEN--\":914:975   */\n  jump(tag_39)\ntag_47:\n    /* \"--CODEGEN--\":905:975   */\n  swap2\n  pop\n    /* \"--CODEGEN--\":995:1001   */\n  dup1\n    /* \"--CODEGEN--\":988:993   */\n  dup3\n    /* \"--CODEGEN--\":981:1002   */\n  mstore\n    /* \"--CODEGEN--\":1031:1035   */\n  0x20\n    /* \"--CODEGEN--\":1023:1029   */\n  dup4\n    /* \"--CODEGEN--\":1019:1036   */\n  add\n    /* \"--CODEGEN--\":1064:1068   */\n  0x20\n    /* \"--CODEGEN--\":1057:1062   */\n  dup4\n    /* \"--CODEGEN--\":1053:1069   */\n  add\n    /* \"--CODEGEN--\":1099:1102   */\n  dup6\n    /* \"--CODEGEN--\":1090:1096   */\n  dup4\n    /* \"--CODEGEN--\":1085:1088   */\n  dup4\n    /* \"--CODEGEN--\":1081:1097   */\n  add\n    /* \"--CODEGEN--\":1078:1103   */\n  gt\n    /* \"--CODEGEN--\":1075:1077   */\n  iszero\n  tag_50\n  jumpi\n    /* \"--CODEGEN--\":1116:1117   */\n  0x0\n    /* \"--CODEGEN--\":1113:1114   */\n  dup1\n    /* \"--CODEGEN--\":1106:1118   */\n  revert\n    /* \"--CODEGEN--\":1075:1077   */\ntag_50:\n    /* \"--CODEGEN--\":1126:1165   */\n  tag_51\n    /* \"--CODEGEN--\":1158:1164   */\n  dup4\n    /* \"--CODEGEN--\":1153:1156   */\n  dup3\n    /* \"--CODEGEN--\":1148:1151   */\n  dup5\n    /* \"--CODEGEN--\":1126:1165   */\n  jump(tag_52)\ntag_51:\n    /* \"--CODEGEN--\":804:1171   */\n  pop\n  pop\n  pop\n  swap3\n  swap2\n  pop\n  pop\n  jump\n    /* \"--CODEGEN--\":1179:1301   */\ntag_54:\n  0x0\n    /* \"--CODEGEN--\":1257:1296   */\n  tag_55\n    /* \"--CODEGEN--\":1288:1294   */\n  dup3\n    /* \"--CODEGEN--\":1282:1295   */\n  mload\n    /* \"--CODEGEN--\":1257:1296   */\n  jump(tag_56)\ntag_55:\n    /* \"--CODEGEN--\":1248:1296   */\n  swap1\n  pop\n    /* \"--CODEGEN--\":1242:1301   */\n  swap3\n  swap2\n  pop\n  pop\n  jump\n    /* \"--CODEGEN--\":1308:1984   */\ntag_3:\n  0x0\n  dup1\n  0x0\n    /* \"--CODEGEN--\":1488:1490   */\n  0x60\n    /* \"--CODEGEN--\":1476:1485   */\n  dup5\n    /* \"--CODEGEN--\":1467:1474   */\n  dup7\n    /* \"--CODEGEN--\":1463:1486   */\n  sub\n    /* \"--CODEGEN--\":1459:1491   */\n  slt\n    /* \"--CODEGEN--\":1456:1458   */\n  iszero\n  tag_58\n  jumpi\n    /* \"--CODEGEN--\":1504:1505   */\n  0x0\n    /* \"--CODEGEN--\":1501:1502   */\n  dup1\n    /* \"--CODEGEN--\":1494:1506   */\n  revert\n    /* \"--CODEGEN--\":1456:1458   */\ntag_58:\n    /* \"--CODEGEN--\":1539:1540   */\n  0x0\n    /* \"--CODEGEN--\":1556:1620   */\n  tag_59\n    /* \"--CODEGEN--\":1612:1619   */\n  dup7\n    /* \"--CODEGEN--\":1603:1609   */\n  dup3\n    /* \"--CODEGEN--\":1592:1601   */\n  dup8\n    /* \"--CODEGEN--\":1588:1610   */\n  add\n    /* \"--CODEGEN--\":1556:1620   */\n  jump(tag_54)\ntag_59:\n    /* \"--CODEGEN--\":1546:1620   */\n  swap4\n  pop\n    /* \"--CODEGEN--\":1518:1626   */\n  pop\n    /* \"--CODEGEN--\":1657:1659   */\n  0x20\n    /* \"--CODEGEN--\":1675:1739   */\n  tag_60\n    /* \"--CODEGEN--\":1731:1738   */\n  dup7\n    /* \"--CODEGEN--\":1722:1728   */\n  dup3\n    /* \"--CODEGEN--\":1711:1720   */\n  dup8\n    /* \"--CODEGEN--\":1707:1729   */\n  add\n    /* \"--CODEGEN--\":1675:1739   */\n  jump(tag_54)\ntag_60:\n    /* \"--CODEGEN--\":1665:1739   */\n  swap3\n  pop\n    /* \"--CODEGEN--\":1636:1745   */\n  pop\n    /* \"--CODEGEN--\":1797:1799   */\n  0x40\n    /* \"--CODEGEN--\":1786:1795   */\n  dup5\n    /* \"--CODEGEN--\":1782:1800   */\n  add\n    /* \"--CODEGEN--\":1776:1801   */\n  mload\n    /* \"--CODEGEN--\":1821:1839   */\n  0xffffffffffffffff\n    /* \"--CODEGEN--\":1813:1819   */\n  dup2\n    /* \"--CODEGEN--\":1810:1840   */\n  gt\n    /* \"--CODEGEN--\":1807:1809   */\n  iszero\n  tag_61\n  jumpi\n    /* \"--CODEGEN--\":1853:1854   */\n  0x0\n    /* \"--CODEGEN--\":1850:1851   */\n  dup1\n    /* \"--CODEGEN--\":1843:1855   */\n  revert\n    /* \"--CODEGEN--\":1807:1809   */\ntag_61:\n    /* \"--CODEGEN--\":1873:1968   */\n  tag_62\n    /* \"--CODEGEN--\":1960:1967   */\n  dup7\n    /* \"--CODEGEN--\":1951:1957   */\n  dup3\n    /* \"--CODEGEN--\":1940:1949   */\n  dup8\n    /* \"--CODEGEN--\":1936:1958   */\n  add\n    /* \"--CODEGEN--\":1873:1968   */\n  jump(tag_34)\ntag_62:\n    /* \"--CODEGEN--\":1863:1968   */\n  swap2\n  pop\n    /* \"--CODEGEN--\":1755:1974   */\n  pop\n    /* \"--CODEGEN--\":1450:1984   */\n  swap3\n  pop\n  swap3\n  pop\n  swap3\n  jump\n    /* \"--CODEGEN--\":1991:2247   */\ntag_39:\n  0x0\n    /* \"--CODEGEN--\":2053:2055   */\n  0x40\n    /* \"--CODEGEN--\":2047:2056   */\n  mload\n    /* \"--CODEGEN--\":2037:2056   */\n  swap1\n  pop\n    /* \"--CODEGEN--\":2091:2095   */\n  dup2\n    /* \"--CODEGEN--\":2083:2089   */\n  dup2\n    /* \"--CODEGEN--\":2079:2096   */\n  add\n    /* \"--CODEGEN--\":2190:2196   */\n  dup2\n    /* \"--CODEGEN--\":2178:2188   */\n  dup2\n    /* \"--CODEGEN--\":2175:2197   */\n  lt\n    /* \"--CODEGEN--\":2154:2172   */\n  0xffffffffffffffff\n    /* \"--CODEGEN--\":2142:2152   */\n  dup3\n    /* \"--CODEGEN--\":2139:2173   */\n  gt\n    /* \"--CODEGEN--\":2136:2198   */\n  or\n    /* \"--CODEGEN--\":2133:2135   */\n  iszero\n  tag_64\n  jumpi\n    /* \"--CODEGEN--\":2211:2212   */\n  0x0\n    /* \"--CODEGEN--\":2208:2209   */\n  dup1\n    /* \"--CODEGEN--\":2201:2213   */\n  revert\n    /* \"--CODEGEN--\":2133:2135   */\ntag_64:\n    /* \"--CODEGEN--\":2231:2241   */\n  dup1\n    /* \"--CODEGEN--\":2227:2229   */\n  0x40\n    /* \"--CODEGEN--\":2220:2242   */\n  mstore\n    /* \"--CODEGEN--\":2031:2247   */\n  pop\n  swap2\n  swap1\n  pop\n  jump\n    /* \"--CODEGEN--\":2254:2518   */\ntag_38:\n  0x0\n    /* \"--CODEGEN--\":2419:2437   */\n  0xffffffffffffffff\n    /* \"--CODEGEN--\":2411:2417   */\n  dup3\n    /* \"--CODEGEN--\":2408:2438   */\n  gt\n    /* \"--CODEGEN--\":2405:2407   */\n  iszero\n  tag_66\n  jumpi\n    /* \"--CODEGEN--\":2451:2452   */\n  0x0\n    /* \"--CODEGEN--\":2448:2449   */\n  dup1\n    /* \"--CODEGEN--\":2441:2453   */\n  revert\n    /* \"--CODEGEN--\":2405:2407   */\ntag_66:\n    /* \"--CODEGEN--\":2480:2484   */\n  0x20\n    /* \"--CODEGEN--\":2472:2478   */\n  dup3\n    /* \"--CODEGEN--\":2468:2485   */\n  mul\n    /* \"--CODEGEN--\":2460:2485   */\n  swap1\n  pop\n    /* \"--CODEGEN--\":2508:2512   */\n  0x20\n    /* \"--CODEGEN--\":2502:2506   */\n  dup2\n    /* \"--CODEGEN--\":2498:2513   */\n  add\n    /* \"--CODEGEN--\":2490:2513   */\n  swap1\n  pop\n    /* \"--CODEGEN--\":2342:2518   */\n  swap2\n  swap1\n  pop\n  jump\n    /* \"--CODEGEN--\":2525:2780   */\ntag_49:\n  0x0\n    /* \"--CODEGEN--\":2665:2683   */\n  0xffffffffffffffff\n    /* \"--CODEGEN--\":2657:2663   */\n  dup3\n    /* \"--CODEGEN--\":2654:2684   */\n  gt\n    /* \"--CODEGEN--\":2651:2653   */\n  iszero\n  tag_68\n  jumpi\n    /* \"--CODEGEN--\":2697:2698   */\n  0x0\n    /* \"--CODEGEN--\":2694:2695   */\n  dup1\n    /* \"--CODEGEN--\":2687:2699   */\n  revert\n    /* \"--CODEGEN--\":2651:2653   */\ntag_68:\n    /* \"--CODEGEN--\":2741:2745   */\n  0x1f\n    /* \"--CODEGEN--\":2737:2746   */\n  not\n    /* \"--CODEGEN--\":2730:2734   */\n  0x1f\n    /* \"--CODEGEN--\":2722:2728   */\n  dup4\n    /* \"--CODEGEN--\":2718:2735   */\n  add\n    /* \"--CODEGEN--\":2714:2747   */\n  and\n    /* \"--CODEGEN--\":2706:2747   */\n  swap1\n  pop\n    /* \"--CODEGEN--\":2770:2774   */\n  0x20\n    /* \"--CODEGEN--\":2764:2768   */\n  dup2\n    /* \"--CODEGEN--\":2760:2775   */\n  add\n    /* \"--CODEGEN--\":2752:2775   */\n  swap1\n  pop\n    /* \"--CODEGEN--\":2588:2780   */\n  swap2\n  swap1\n  pop\n  jump\n    /* \"--CODEGEN--\":2787:2866   */\ntag_56:\n  0x0\n    /* \"--CODEGEN--\":2856:2861   */\n  dup2\n    /* \"--CODEGEN--\":2845:2861   */\n  swap1\n  pop\n    /* \"--CODEGEN--\":2839:2866   */\n  swap2\n  swap1\n  pop\n  jump\n    /* \"--CODEGEN--\":2874:3142   */\ntag_52:\n    /* \"--CODEGEN--\":2939:2940   */\n  0x0\n    /* \"--CODEGEN--\":2946:3047   */\ntag_71:\n    /* \"--CODEGEN--\":2960:2966   */\n  dup4\n    /* \"--CODEGEN--\":2957:2958   */\n  dup2\n    /* \"--CODEGEN--\":2954:2967   */\n  lt\n    /* \"--CODEGEN--\":2946:3047   */\n  iszero\n  tag_72\n  jumpi\n    /* \"--CODEGEN--\":3036:3037   */\n  dup1\n    /* \"--CODEGEN--\":3031:3034   */\n  dup3\n    /* \"--CODEGEN--\":3027:3038   */\n  add\n    /* \"--CODEGEN--\":3021:3039   */\n  mload\n    /* \"--CODEGEN--\":3017:3018   */\n  dup2\n    /* \"--CODEGEN--\":3012:3015   */\n  dup5\n    /* \"--CODEGEN--\":3008:3019   */\n  add\n    /* \"--CODEGEN--\":3001:3040   */\n  mstore\n    /* \"--CODEGEN--\":2982:2984   */\n  0x20\n    /* \"--CODEGEN--\":2979:2980   */\n  dup2\n    /* \"--CODEGEN--\":2975:2985   */\n  add\n    /* \"--CODEGEN--\":2970:2985   */\n  swap1\n  pop\n    /* \"--CODEGEN--\":2946:3047   */\n  jump(tag_71)\ntag_72:\n    /* \"--CODEGEN--\":3062:3068   */\n  dup4\n    /* \"--CODEGEN--\":3059:3060   */\n  dup2\n    /* \"--CODEGEN--\":3056:3069   */\n  gt\n    /* \"--CODEGEN--\":3053:3055   */\n  iszero\n  tag_74\n  jumpi\n    /* \"--CODEGEN--\":3127:3128   */\n  0x0\n    /* \"--CODEGEN--\":3118:3124   */\n  dup5\n    /* \"--CODEGEN--\":3113:3116   */\n  dup5\n    /* \"--CODEGEN--\":3109:3125   */\n  add\n    /* \"--CODEGEN--\":3102:3129   */\n  mstore\n    /* \"--CODEGEN--\":3053:3055   */\ntag_74:\n    /* \"--CODEGEN--\":2923:3142   */\n  pop\n  pop\n  pop\n  pop\n  jump\n    /* \"contracts/Voting.sol\":129:5036  contract Voting {... */\ntag_8:\n  dataSize(sub_0)\n  dup1\n  dataOffset(sub_0)\n  0x0\n  codecopy\n  0x0\n  return\nstop\n\nsub_0: assembly {\n        /* \"contracts/Voting.sol\":129:5036  contract Voting {... */\n      mstore(0x40, 0x80)\n      jumpi(tag_1, lt(calldatasize, 0x4))\n      calldataload(0x0)\n      0x100000000000000000000000000000000000000000000000000000000\n      swap1\n      div\n      0xffffffff\n      and\n      dup1\n      0x2f506b6f\n      eq\n      tag_2\n      jumpi\n      dup1\n      0x4a3bf377\n      eq\n      tag_3\n      jumpi\n      dup1\n      0x518ab2a8\n      eq\n      tag_4\n      jumpi\n      dup1\n      0x5938750d\n      eq\n      tag_5\n      jumpi\n      dup1\n      0x7e1c0c09\n      eq\n      tag_6\n      jumpi\n      dup1\n      0x7ff9b596\n      eq\n      tag_7\n      jumpi\n      dup1\n      0x81c40715\n      eq\n      tag_8\n      jumpi\n      dup1\n      0xa03fa7e3\n      eq\n      tag_9\n      jumpi\n      dup1\n      0xa6f2ae3a\n      eq\n      tag_10\n      jumpi\n      dup1\n      0xd1d1a39d\n      eq\n      tag_11\n      jumpi\n      dup1\n      0xe4494a0f\n      eq\n      tag_12\n      jumpi\n    tag_1:\n      0x0\n      dup1\n      revert\n        /* \"contracts/Voting.sol\":3323:3608  function indexOfCandidate(string candidate) view public returns (uint) {... */\n    tag_2:\n      callvalue\n        /* \"--CODEGEN--\":8:17   */\n      dup1\n        /* \"--CODEGEN--\":5:7   */\n      iszero\n      tag_13\n      jumpi\n        /* \"--CODEGEN--\":30:31   */\n      0x0\n        /* \"--CODEGEN--\":27:28   */\n      dup1\n        /* \"--CODEGEN--\":20:32   */\n      revert\n        /* \"--CODEGEN--\":5:7   */\n    tag_13:\n        /* \"contracts/Voting.sol\":3323:3608  function indexOfCandidate(string candidate) view public returns (uint) {... */\n      pop\n      tag_14\n      0x4\n      dup1\n      calldatasize\n      sub\n      tag_15\n      swap2\n      swap1\n      dup2\n      add\n      swap1\n      jump(tag_16)\n    tag_15:\n      jump(tag_17)\n    tag_14:\n      mload(0x40)\n      tag_18\n      swap2\n      swap1\n      jump(tag_19)\n    tag_18:\n      mload(0x40)\n      dup1\n      swap2\n      sub\n      swap1\n      return\n        /* \"contracts/Voting.sol\":1844:1954  function totalVotesFor(string candidate) view public returns (uint) {... */\n    tag_3:\n      callvalue\n        /* \"--CODEGEN--\":8:17   */\n      dup1\n        /* \"--CODEGEN--\":5:7   */\n      iszero\n      tag_20\n      jumpi\n        /* \"--CODEGEN--\":30:31   */\n      0x0\n        /* \"--CODEGEN--\":27:28   */\n      dup1\n        /* \"--CODEGEN--\":20:32   */\n      revert\n        /* \"--CODEGEN--\":5:7   */\n    tag_20:\n        /* \"contracts/Voting.sol\":1844:1954  function totalVotesFor(string candidate) view public returns (uint) {... */\n      pop\n      tag_21\n      0x4\n      dup1\n      calldatasize\n      sub\n      tag_22\n      swap2\n      swap1\n      dup2\n      add\n      swap1\n      jump(tag_16)\n    tag_22:\n      jump(tag_23)\n    tag_21:\n      mload(0x40)\n      tag_24\n      swap2\n      swap1\n      jump(tag_19)\n    tag_24:\n      mload(0x40)\n      dup1\n      swap2\n      sub\n      swap1\n      return\n        /* \"contracts/Voting.sol\":4192:4286  function tokensSold() view public returns (uint) {... */\n    tag_4:\n      callvalue\n        /* \"--CODEGEN--\":8:17   */\n      dup1\n        /* \"--CODEGEN--\":5:7   */\n      iszero\n      tag_25\n      jumpi\n        /* \"--CODEGEN--\":30:31   */\n      0x0\n        /* \"--CODEGEN--\":27:28   */\n      dup1\n        /* \"--CODEGEN--\":20:32   */\n      revert\n        /* \"--CODEGEN--\":5:7   */\n    tag_25:\n        /* \"contracts/Voting.sol\":4192:4286  function tokensSold() view public returns (uint) {... */\n      pop\n      tag_26\n      jump(tag_27)\n    tag_26:\n      mload(0x40)\n      tag_28\n      swap2\n      swap1\n      jump(tag_19)\n    tag_28:\n      mload(0x40)\n      dup1\n      swap2\n      sub\n      swap1\n      return\n        /* \"contracts/Voting.sol\":4290:4449  function voterDetails(address user) view public returns (uint, uint[]) {... */\n    tag_5:\n      callvalue\n        /* \"--CODEGEN--\":8:17   */\n      dup1\n        /* \"--CODEGEN--\":5:7   */\n      iszero\n      tag_29\n      jumpi\n        /* \"--CODEGEN--\":30:31   */\n      0x0\n        /* \"--CODEGEN--\":27:28   */\n      dup1\n        /* \"--CODEGEN--\":20:32   */\n      revert\n        /* \"--CODEGEN--\":5:7   */\n    tag_29:\n        /* \"contracts/Voting.sol\":4290:4449  function voterDetails(address user) view public returns (uint, uint[]) {... */\n      pop\n      tag_30\n      0x4\n      dup1\n      calldatasize\n      sub\n      tag_31\n      swap2\n      swap1\n      dup2\n      add\n      swap1\n      jump(tag_32)\n    tag_31:\n      jump(tag_33)\n    tag_30:\n      mload(0x40)\n      tag_34\n      swap3\n      swap2\n      swap1\n      jump(tag_35)\n    tag_34:\n      mload(0x40)\n      dup1\n      swap2\n      sub\n      swap1\n      return\n        /* \"contracts/Voting.sol\":1270:1293  uint public totalTokens */\n    tag_6:\n      callvalue\n        /* \"--CODEGEN--\":8:17   */\n      dup1\n        /* \"--CODEGEN--\":5:7   */\n      iszero\n      tag_36\n      jumpi\n        /* \"--CODEGEN--\":30:31   */\n      0x0\n        /* \"--CODEGEN--\":27:28   */\n      dup1\n        /* \"--CODEGEN--\":20:32   */\n      revert\n        /* \"--CODEGEN--\":5:7   */\n    tag_36:\n        /* \"contracts/Voting.sol\":1270:1293  uint public totalTokens */\n      pop\n      tag_37\n      jump(tag_38)\n    tag_37:\n      mload(0x40)\n      tag_39\n      swap2\n      swap1\n      jump(tag_19)\n    tag_39:\n      mload(0x40)\n      dup1\n      swap2\n      sub\n      swap1\n      return\n        /* \"contracts/Voting.sol\":1429:1451  uint public tokenPrice */\n    tag_7:\n      callvalue\n        /* \"--CODEGEN--\":8:17   */\n      dup1\n        /* \"--CODEGEN--\":5:7   */\n      iszero\n      tag_40\n      jumpi\n        /* \"--CODEGEN--\":30:31   */\n      0x0\n        /* \"--CODEGEN--\":27:28   */\n      dup1\n        /* \"--CODEGEN--\":20:32   */\n      revert\n        /* \"--CODEGEN--\":5:7   */\n    tag_40:\n        /* \"contracts/Voting.sol\":1429:1451  uint public tokenPrice */\n      pop\n      tag_41\n      jump(tag_42)\n    tag_41:\n      mload(0x40)\n      tag_43\n      swap2\n      swap1\n      jump(tag_19)\n    tag_43:\n      mload(0x40)\n      dup1\n      swap2\n      sub\n      swap1\n      return\n        /* \"contracts/Voting.sol\":4946:5033  function allCandidates() view public returns (string[]) {... */\n    tag_8:\n      callvalue\n        /* \"--CODEGEN--\":8:17   */\n      dup1\n        /* \"--CODEGEN--\":5:7   */\n      iszero\n      tag_44\n      jumpi\n        /* \"--CODEGEN--\":30:31   */\n      0x0\n        /* \"--CODEGEN--\":27:28   */\n      dup1\n        /* \"--CODEGEN--\":20:32   */\n      revert\n        /* \"--CODEGEN--\":5:7   */\n    tag_44:\n        /* \"contracts/Voting.sol\":4946:5033  function allCandidates() view public returns (string[]) {... */\n      pop\n      tag_45\n      jump(tag_46)\n    tag_45:\n      mload(0x40)\n      tag_47\n      swap2\n      swap1\n      jump(tag_48)\n    tag_47:\n      mload(0x40)\n      dup1\n      swap2\n      sub\n      swap1\n      return\n        /* \"contracts/Voting.sol\":4857:4942  function transferTo(address account) public {... */\n    tag_9:\n      callvalue\n        /* \"--CODEGEN--\":8:17   */\n      dup1\n        /* \"--CODEGEN--\":5:7   */\n      iszero\n      tag_49\n      jumpi\n        /* \"--CODEGEN--\":30:31   */\n      0x0\n        /* \"--CODEGEN--\":27:28   */\n      dup1\n        /* \"--CODEGEN--\":20:32   */\n      revert\n        /* \"--CODEGEN--\":5:7   */\n    tag_49:\n        /* \"contracts/Voting.sol\":4857:4942  function transferTo(address account) public {... */\n      pop\n      tag_50\n      0x4\n      dup1\n      calldatasize\n      sub\n      tag_51\n      swap2\n      swap1\n      dup2\n      add\n      swap1\n      jump(tag_32)\n    tag_51:\n      jump(tag_52)\n    tag_50:\n      stop\n        /* \"contracts/Voting.sol\":3882:4188  function buy() payable public returns (uint) {... */\n    tag_10:\n      tag_53\n      jump(tag_54)\n    tag_53:\n      mload(0x40)\n      tag_55\n      swap2\n      swap1\n      jump(tag_19)\n    tag_55:\n      mload(0x40)\n      dup1\n      swap2\n      sub\n      swap1\n      return\n        /* \"contracts/Voting.sol\":2111:2987  function voteForCandidate(string candidate, uint votesInTokens) public {... */\n    tag_11:\n      callvalue\n        /* \"--CODEGEN--\":8:17   */\n      dup1\n        /* \"--CODEGEN--\":5:7   */\n      iszero\n      tag_56\n      jumpi\n        /* \"--CODEGEN--\":30:31   */\n      0x0\n        /* \"--CODEGEN--\":27:28   */\n      dup1\n        /* \"--CODEGEN--\":20:32   */\n      revert\n        /* \"--CODEGEN--\":5:7   */\n    tag_56:\n        /* \"contracts/Voting.sol\":2111:2987  function voteForCandidate(string candidate, uint votesInTokens) public {... */\n      pop\n      tag_57\n      0x4\n      dup1\n      calldatasize\n      sub\n      tag_58\n      swap2\n      swap1\n      dup2\n      add\n      swap1\n      jump(tag_59)\n    tag_58:\n      jump(tag_60)\n    tag_57:\n      stop\n        /* \"contracts/Voting.sol\":1348:1373  uint public balanceTokens */\n    tag_12:\n      callvalue\n        /* \"--CODEGEN--\":8:17   */\n      dup1\n        /* \"--CODEGEN--\":5:7   */\n      iszero\n      tag_61\n      jumpi\n        /* \"--CODEGEN--\":30:31   */\n      0x0\n        /* \"--CODEGEN--\":27:28   */\n      dup1\n        /* \"--CODEGEN--\":20:32   */\n      revert\n        /* \"--CODEGEN--\":5:7   */\n    tag_61:\n        /* \"contracts/Voting.sol\":1348:1373  uint public balanceTokens */\n      pop\n      tag_62\n      jump(tag_63)\n    tag_62:\n      mload(0x40)\n      tag_64\n      swap2\n      swap1\n      jump(tag_19)\n    tag_64:\n      mload(0x40)\n      dup1\n      swap2\n      sub\n      swap1\n      return\n        /* \"contracts/Voting.sol\":3323:3608  function indexOfCandidate(string candidate) view public returns (uint) {... */\n    tag_17:\n        /* \"contracts/Voting.sol\":3388:3392  uint */\n      0x0\n        /* \"contracts/Voting.sol\":3404:3410  uint i */\n      dup1\n        /* \"contracts/Voting.sol\":3413:3414  0 */\n      0x0\n        /* \"contracts/Voting.sol\":3404:3414  uint i = 0 */\n      swap1\n      pop\n        /* \"contracts/Voting.sol\":3400:3583  for(uint i = 0; i < candidateList.length; i++) {... */\n    tag_66:\n        /* \"contracts/Voting.sol\":3420:3433  candidateList */\n      0x2\n        /* \"contracts/Voting.sol\":3420:3440  candidateList.length */\n      dup1\n      sload\n      swap1\n      pop\n        /* \"contracts/Voting.sol\":3416:3417  i */\n      dup2\n        /* \"contracts/Voting.sol\":3416:3440  i < candidateList.length */\n      lt\n        /* \"contracts/Voting.sol\":3400:3583  for(uint i = 0; i < candidateList.length; i++) {... */\n      iszero\n      tag_67\n      jumpi\n        /* \"contracts/Voting.sol\":3537:3546  candidate */\n      dup3\n        /* \"contracts/Voting.sol\":3519:3548  abi.encodePacked((candidate)) */\n      add(0x20, mload(0x40))\n      dup1\n      dup3\n      dup1\n      mload\n      swap1\n      0x20\n      add\n      swap1\n      dup1\n      dup4\n      dup4\n        /* \"--CODEGEN--\":36:189   */\n    tag_69:\n        /* \"--CODEGEN--\":66:68   */\n      0x20\n        /* \"--CODEGEN--\":61:64   */\n      dup4\n        /* \"--CODEGEN--\":58:69   */\n      lt\n        /* \"--CODEGEN--\":51:70   */\n      iszero\n        /* \"--CODEGEN--\":36:189   */\n      iszero\n      tag_70\n      jumpi\n        /* \"--CODEGEN--\":182:185   */\n      dup1\n        /* \"--CODEGEN--\":176:186   */\n      mload\n        /* \"--CODEGEN--\":171:174   */\n      dup3\n        /* \"--CODEGEN--\":164:187   */\n      mstore\n        /* \"--CODEGEN--\":98:100   */\n      0x20\n        /* \"--CODEGEN--\":93:96   */\n      dup3\n        /* \"--CODEGEN--\":89:101   */\n      add\n        /* \"--CODEGEN--\":82:101   */\n      swap2\n      pop\n        /* \"--CODEGEN--\":123:125   */\n      0x20\n        /* \"--CODEGEN--\":118:121   */\n      dup2\n        /* \"--CODEGEN--\":114:126   */\n      add\n        /* \"--CODEGEN--\":107:126   */\n      swap1\n      pop\n        /* \"--CODEGEN--\":148:150   */\n      0x20\n        /* \"--CODEGEN--\":143:146   */\n      dup4\n        /* \"--CODEGEN--\":139:151   */\n      sub\n        /* \"--CODEGEN--\":132:151   */\n      swap3\n      pop\n        /* \"--CODEGEN--\":36:189   */\n      jump(tag_69)\n    tag_70:\n        /* \"--CODEGEN--\":274:275   */\n      0x1\n        /* \"--CODEGEN--\":267:270   */\n      dup4\n        /* \"--CODEGEN--\":263:265   */\n      0x20\n        /* \"--CODEGEN--\":259:271   */\n      sub\n        /* \"--CODEGEN--\":254:257   */\n      0x100\n        /* \"--CODEGEN--\":250:272   */\n      exp\n        /* \"--CODEGEN--\":246:276   */\n      sub\n        /* \"--CODEGEN--\":315:319   */\n      dup1\n        /* \"--CODEGEN--\":311:320   */\n      not\n        /* \"--CODEGEN--\":305:308   */\n      dup3\n        /* \"--CODEGEN--\":299:309   */\n      mload\n        /* \"--CODEGEN--\":295:321   */\n      and\n        /* \"--CODEGEN--\":356:360   */\n      dup2\n        /* \"--CODEGEN--\":350:353   */\n      dup5\n        /* \"--CODEGEN--\":344:354   */\n      mload\n        /* \"--CODEGEN--\":340:361   */\n      and\n        /* \"--CODEGEN--\":389:396   */\n      dup1\n        /* \"--CODEGEN--\":380:387   */\n      dup3\n        /* \"--CODEGEN--\":377:397   */\n      or\n        /* \"--CODEGEN--\":372:375   */\n      dup6\n        /* \"--CODEGEN--\":365:398   */\n      mstore\n        /* \"--CODEGEN--\":3:402   */\n      pop\n      pop\n      pop\n        /* \"contracts/Voting.sol\":3519:3548  abi.encodePacked((candidate)) */\n      pop\n      pop\n      pop\n      swap1\n      pop\n      add\n      swap2\n      pop\n      pop\n      mload(0x40)\n        /* \"--CODEGEN--\":49:53   */\n      0x20\n        /* \"--CODEGEN--\":39:46   */\n      dup2\n        /* \"--CODEGEN--\":30:37   */\n      dup4\n        /* \"--CODEGEN--\":26:47   */\n      sub\n        /* \"--CODEGEN--\":22:54   */\n      sub\n        /* \"--CODEGEN--\":13:20   */\n      dup2\n        /* \"--CODEGEN--\":6:55   */\n      mstore\n        /* \"contracts/Voting.sol\":3519:3548  abi.encodePacked((candidate)) */\n      swap1\n      0x40\n      mstore\n        /* \"contracts/Voting.sol\":3509:3549  keccak256(abi.encodePacked((candidate))) */\n      mload(0x40)\n      dup1\n      dup3\n      dup1\n      mload\n      swap1\n      0x20\n      add\n      swap1\n      dup1\n      dup4\n      dup4\n        /* \"--CODEGEN--\":36:189   */\n    tag_72:\n        /* \"--CODEGEN--\":66:68   */\n      0x20\n        /* \"--CODEGEN--\":61:64   */\n      dup4\n        /* \"--CODEGEN--\":58:69   */\n      lt\n        /* \"--CODEGEN--\":51:70   */\n      iszero\n        /* \"--CODEGEN--\":36:189   */\n      iszero\n      tag_73\n      jumpi\n        /* \"--CODEGEN--\":182:185   */\n      dup1\n        /* \"--CODEGEN--\":176:186   */\n      mload\n        /* \"--CODEGEN--\":171:174   */\n      dup3\n        /* \"--CODEGEN--\":164:187   */\n      mstore\n        /* \"--CODEGEN--\":98:100   */\n      0x20\n        /* \"--CODEGEN--\":93:96   */\n      dup3\n        /* \"--CODEGEN--\":89:101   */\n      add\n        /* \"--CODEGEN--\":82:101   */\n      swap2\n      pop\n        /* \"--CODEGEN--\":123:125   */\n      0x20\n        /* \"--CODEGEN--\":118:121   */\n      dup2\n        /* \"--CODEGEN--\":114:126   */\n      add\n        /* \"--CODEGEN--\":107:126   */\n      swap1\n      pop\n        /* \"--CODEGEN--\":148:150   */\n      0x20\n        /* \"--CODEGEN--\":143:146   */\n      dup4\n        /* \"--CODEGEN--\":139:151   */\n      sub\n        /* \"--CODEGEN--\":132:151   */\n      swap3\n      pop\n        /* \"--CODEGEN--\":36:189   */\n      jump(tag_72)\n    tag_73:\n        /* \"--CODEGEN--\":274:275   */\n      0x1\n        /* \"--CODEGEN--\":267:270   */\n      dup4\n        /* \"--CODEGEN--\":263:265   */\n      0x20\n        /* \"--CODEGEN--\":259:271   */\n      sub\n        /* \"--CODEGEN--\":254:257   */\n      0x100\n        /* \"--CODEGEN--\":250:272   */\n      exp\n        /* \"--CODEGEN--\":246:276   */\n      sub\n        /* \"--CODEGEN--\":315:319   */\n      dup1\n        /* \"--CODEGEN--\":311:320   */\n      not\n        /* \"--CODEGEN--\":305:308   */\n      dup3\n        /* \"--CODEGEN--\":299:309   */\n      mload\n        /* \"--CODEGEN--\":295:321   */\n      and\n        /* \"--CODEGEN--\":356:360   */\n      dup2\n        /* \"--CODEGEN--\":350:353   */\n      dup5\n        /* \"--CODEGEN--\":344:354   */\n      mload\n        /* \"--CODEGEN--\":340:361   */\n      and\n        /* \"--CODEGEN--\":389:396   */\n      dup1\n        /* \"--CODEGEN--\":380:387   */\n      dup3\n        /* \"--CODEGEN--\":377:397   */\n      or\n        /* \"--CODEGEN--\":372:375   */\n      dup6\n        /* \"--CODEGEN--\":365:398   */\n      mstore\n        /* \"--CODEGEN--\":3:402   */\n      pop\n      pop\n      pop\n        /* \"contracts/Voting.sol\":3509:3549  keccak256(abi.encodePacked((candidate))) */\n      pop\n      pop\n      pop\n      swap1\n      pop\n      add\n      swap2\n      pop\n      pop\n      mload(0x40)\n      dup1\n      swap2\n      sub\n      swap1\n      keccak256\n        /* \"contracts/Voting.sol\":3458:3549  keccak256(abi.encodePacked((candidateList[i]))) == keccak256(abi.encodePacked((candidate))) */\n      not(0x0)\n      and\n        /* \"contracts/Voting.sol\":3486:3499  candidateList */\n      0x2\n        /* \"contracts/Voting.sol\":3500:3501  i */\n      dup3\n        /* \"contracts/Voting.sol\":3486:3502  candidateList[i] */\n      dup2\n      sload\n      dup2\n      lt\n      iszero\n      iszero\n      tag_75\n      jumpi\n      invalid\n    tag_75:\n      swap1\n      0x0\n      mstore\n      keccak256(0x0, 0x20)\n      add\n        /* \"contracts/Voting.sol\":3468:3504  abi.encodePacked((candidateList[i])) */\n      add(0x20, mload(0x40))\n      dup1\n      dup3\n      dup1\n      sload\n      0x1\n      dup2\n      0x1\n      and\n      iszero\n      0x100\n      mul\n      sub\n      and\n      0x2\n      swap1\n      div\n      dup1\n      iszero\n      tag_77\n      jumpi\n      dup1\n      0x1f\n      lt\n      tag_78\n      jumpi\n      0x100\n      dup1\n      dup4\n      sload\n      div\n      mul\n      dup4\n      mstore\n      swap2\n      dup3\n      add\n      swap2\n      jump(tag_77)\n    tag_78:\n      dup3\n      add\n      swap2\n      swap1\n      0x0\n      mstore\n      keccak256(0x0, 0x20)\n      swap1\n    tag_79:\n      dup2\n      sload\n      dup2\n      mstore\n      swap1\n      0x1\n      add\n      swap1\n      0x20\n      add\n      dup1\n      dup4\n      gt\n      tag_79\n      jumpi\n    tag_77:\n      pop\n      pop\n      swap2\n      pop\n      pop\n      mload(0x40)\n        /* \"--CODEGEN--\":49:53   */\n      0x20\n        /* \"--CODEGEN--\":39:46   */\n      dup2\n        /* \"--CODEGEN--\":30:37   */\n      dup4\n        /* \"--CODEGEN--\":26:47   */\n      sub\n        /* \"--CODEGEN--\":22:54   */\n      sub\n        /* \"--CODEGEN--\":13:20   */\n      dup2\n        /* \"--CODEGEN--\":6:55   */\n      mstore\n        /* \"contracts/Voting.sol\":3468:3504  abi.encodePacked((candidateList[i])) */\n      swap1\n      0x40\n      mstore\n        /* \"contracts/Voting.sol\":3458:3505  keccak256(abi.encodePacked((candidateList[i]))) */\n      mload(0x40)\n      dup1\n      dup3\n      dup1\n      mload\n      swap1\n      0x20\n      add\n      swap1\n      dup1\n      dup4\n      dup4\n        /* \"--CODEGEN--\":36:189   */\n    tag_80:\n        /* \"--CODEGEN--\":66:68   */\n      0x20\n        /* \"--CODEGEN--\":61:64   */\n      dup4\n        /* \"--CODEGEN--\":58:69   */\n      lt\n        /* \"--CODEGEN--\":51:70   */\n      iszero\n        /* \"--CODEGEN--\":36:189   */\n      iszero\n      tag_81\n      jumpi\n        /* \"--CODEGEN--\":182:185   */\n      dup1\n        /* \"--CODEGEN--\":176:186   */\n      mload\n        /* \"--CODEGEN--\":171:174   */\n      dup3\n        /* \"--CODEGEN--\":164:187   */\n      mstore\n        /* \"--CODEGEN--\":98:100   */\n      0x20\n        /* \"--CODEGEN--\":93:96   */\n      dup3\n        /* \"--CODEGEN--\":89:101   */\n      add\n        /* \"--CODEGEN--\":82:101   */\n      swap2\n      pop\n        /* \"--CODEGEN--\":123:125   */\n      0x20\n        /* \"--CODEGEN--\":118:121   */\n      dup2\n        /* \"--CODEGEN--\":114:126   */\n      add\n        /* \"--CODEGEN--\":107:126   */\n      swap1\n      pop\n        /* \"--CODEGEN--\":148:150   */\n      0x20\n        /* \"--CODEGEN--\":143:146   */\n      dup4\n        /* \"--CODEGEN--\":139:151   */\n      sub\n        /* \"--CODEGEN--\":132:151   */\n      swap3\n      pop\n        /* \"--CODEGEN--\":36:189   */\n      jump(tag_80)\n    tag_81:\n        /* \"--CODEGEN--\":274:275   */\n      0x1\n        /* \"--CODEGEN--\":267:270   */\n      dup4\n        /* \"--CODEGEN--\":263:265   */\n      0x20\n        /* \"--CODEGEN--\":259:271   */\n      sub\n        /* \"--CODEGEN--\":254:257   */\n      0x100\n        /* \"--CODEGEN--\":250:272   */\n      exp\n        /* \"--CODEGEN--\":246:276   */\n      sub\n        /* \"--CODEGEN--\":315:319   */\n      dup1\n        /* \"--CODEGEN--\":311:320   */\n      not\n        /* \"--CODEGEN--\":305:308   */\n      dup3\n        /* \"--CODEGEN--\":299:309   */\n      mload\n        /* \"--CODEGEN--\":295:321   */\n      and\n        /* \"--CODEGEN--\":356:360   */\n      dup2\n        /* \"--CODEGEN--\":350:353   */\n      dup5\n        /* \"--CODEGEN--\":344:354   */\n      mload\n        /* \"--CODEGEN--\":340:361   */\n      and\n        /* \"--CODEGEN--\":389:396   */\n      dup1\n        /* \"--CODEGEN--\":380:387   */\n      dup3\n        /* \"--CODEGEN--\":377:397   */\n      or\n        /* \"--CODEGEN--\":372:375   */\n      dup6\n        /* \"--CODEGEN--\":365:398   */\n      mstore\n        /* \"--CODEGEN--\":3:402   */\n      pop\n      pop\n      pop\n        /* \"contracts/Voting.sol\":3458:3505  keccak256(abi.encodePacked((candidateList[i]))) */\n      pop\n      pop\n      pop\n      swap1\n      pop\n      add\n      swap2\n      pop\n      pop\n      mload(0x40)\n      dup1\n      swap2\n      sub\n      swap1\n      keccak256\n        /* \"contracts/Voting.sol\":3458:3549  keccak256(abi.encodePacked((candidateList[i]))) == keccak256(abi.encodePacked((candidate))) */\n      not(0x0)\n      and\n      eq\n        /* \"contracts/Voting.sol\":3455:3577  if(keccak256(abi.encodePacked((candidateList[i]))) == keccak256(abi.encodePacked((candidate)))){... */\n      iszero\n      tag_83\n      jumpi\n        /* \"contracts/Voting.sol\":3567:3568  i */\n      dup1\n        /* \"contracts/Voting.sol\":3560:3568  return i */\n      swap2\n      pop\n      jump(tag_65)\n        /* \"contracts/Voting.sol\":3455:3577  if(keccak256(abi.encodePacked((candidateList[i]))) == keccak256(abi.encodePacked((candidate)))){... */\n    tag_83:\n        /* \"contracts/Voting.sol\":3442:3445  i++ */\n      dup1\n      dup1\n      0x1\n      add\n      swap2\n      pop\n      pop\n        /* \"contracts/Voting.sol\":3400:3583  for(uint i = 0; i < candidateList.length; i++) {... */\n      jump(tag_66)\n    tag_67:\n        /* \"contracts/Voting.sol\":3600:3602  -1 */\n      0xffffffffffffffffffffffffffffffffffffffffffffffffffffffffffffffff\n        /* \"contracts/Voting.sol\":3588:3603  return uint(-1) */\n      swap2\n      pop\n        /* \"contracts/Voting.sol\":3323:3608  function indexOfCandidate(string candidate) view public returns (uint) {... */\n    tag_65:\n      pop\n      swap2\n      swap1\n      pop\n      jump\t// out\n        /* \"contracts/Voting.sol\":1844:1954  function totalVotesFor(string candidate) view public returns (uint) {... */\n    tag_23:\n        /* \"contracts/Voting.sol\":1906:1910  uint */\n      0x0\n        /* \"contracts/Voting.sol\":1925:1938  votesReceived */\n      0x1\n        /* \"contracts/Voting.sol\":1939:1948  candidate */\n      dup3\n        /* \"contracts/Voting.sol\":1925:1949  votesReceived[candidate] */\n      mload(0x40)\n      dup1\n      dup3\n      dup1\n      mload\n      swap1\n      0x20\n      add\n      swap1\n      dup1\n      dup4\n      dup4\n        /* \"--CODEGEN--\":36:189   */\n    tag_85:\n        /* \"--CODEGEN--\":66:68   */\n      0x20\n        /* \"--CODEGEN--\":61:64   */\n      dup4\n        /* \"--CODEGEN--\":58:69   */\n      lt\n        /* \"--CODEGEN--\":51:70   */\n      iszero\n        /* \"--CODEGEN--\":36:189   */\n      iszero\n      tag_86\n      jumpi\n        /* \"--CODEGEN--\":182:185   */\n      dup1\n        /* \"--CODEGEN--\":176:186   */\n      mload\n        /* \"--CODEGEN--\":171:174   */\n      dup3\n        /* \"--CODEGEN--\":164:187   */\n      mstore\n        /* \"--CODEGEN--\":98:100   */\n      0x20\n        /* \"--CODEGEN--\":93:96   */\n      dup3\n        /* \"--CODEGEN--\":89:101   */\n      add\n        /* \"--CODEGEN--\":82:101   */\n      swap2\n      pop\n        /* \"--CODEGEN--\":123:125   */\n      0x20\n        /* \"--CODEGEN--\":118:121   */\n      dup2\n        /* \"--CODEGEN--\":114:126   */\n      add\n        /* \"--CODEGEN--\":107:126   */\n      swap1\n      pop\n        /* \"--CODEGEN--\":148:150   */\n      0x20\n        /* \"--CODEGEN--\":143:146   */\n      dup4\n        /* \"--CODEGEN--\":139:151   */\n      sub\n        /* \"--CODEGEN--\":132:151   */\n      swap3\n      pop\n        /* \"--CODEGEN--\":36:189   */\n      jump(tag_85)\n    tag_86:\n        /* \"--CODEGEN--\":274:275   */\n      0x1\n        /* \"--CODEGEN--\":267:270   */\n      dup4\n        /* \"--CODEGEN--\":263:265   */\n      0x20\n        /* \"--CODEGEN--\":259:271   */\n      sub\n        /* \"--CODEGEN--\":254:257   */\n      0x100\n        /* \"--CODEGEN--\":250:272   */\n      exp\n        /* \"--CODEGEN--\":246:276   */\n      sub\n        /* \"--CODEGEN--\":315:319   */\n      dup1\n        /* \"--CODEGEN--\":311:320   */\n      not\n        /* \"--CODEGEN--\":305:308   */\n      dup3\n        /* \"--CODEGEN--\":299:309   */\n      mload\n        /* \"--CODEGEN--\":295:321   */\n      and\n        /* \"--CODEGEN--\":356:360   */\n      dup2\n        /* \"--CODEGEN--\":350:353   */\n      dup5\n        /* \"--CODEGEN--\":344:354   */\n      mload\n        /* \"--CODEGEN--\":340:361   */\n      and\n        /* \"--CODEGEN--\":389:396   */\n      dup1\n        /* \"--CODEGEN--\":380:387   */\n      dup3\n        /* \"--CODEGEN--\":377:397   */\n      or\n        /* \"--CODEGEN--\":372:375   */\n      dup6\n        /* \"--CODEGEN--\":365:398   */\n      mstore\n        /* \"--CODEGEN--\":3:402   */\n      pop\n      pop\n      pop\n        /* \"contracts/Voting.sol\":1925:1949  votesReceived[candidate] */\n      pop\n      pop\n      pop\n      swap1\n      pop\n      add\n      swap2\n      pop\n      pop\n      swap1\n      dup2\n      mstore\n      0x20\n      add\n      mload(0x40)\n      dup1\n      swap2\n      sub\n      swap1\n      keccak256\n      sload\n        /* \"contracts/Voting.sol\":1918:1949  return votesReceived[candidate] */\n      swap1\n      pop\n        /* \"contracts/Voting.sol\":1844:1954  function totalVotesFor(string candidate) view public returns (uint) {... */\n      swap2\n      swap1\n      pop\n      jump\t// out\n        /* \"contracts/Voting.sol\":4192:4286  function tokensSold() view public returns (uint) {... */\n    tag_27:\n        /* \"contracts/Voting.sol\":4235:4239  uint */\n      0x0\n        /* \"contracts/Voting.sol\":4268:4281  balanceTokens */\n      sload(0x4)\n        /* \"contracts/Voting.sol\":4254:4265  totalTokens */\n      sload(0x3)\n        /* \"contracts/Voting.sol\":4254:4281  totalTokens - balanceTokens */\n      sub\n        /* \"contracts/Voting.sol\":4247:4281  return totalTokens - balanceTokens */\n      swap1\n      pop\n        /* \"contracts/Voting.sol\":4192:4286  function tokensSold() view public returns (uint) {... */\n      swap1\n      jump\t// out\n        /* \"contracts/Voting.sol\":4290:4449  function voterDetails(address user) view public returns (uint, uint[]) {... */\n    tag_33:\n        /* \"contracts/Voting.sol\":4347:4351  uint */\n      0x0\n        /* \"contracts/Voting.sol\":4353:4359  uint[] */\n      0x60\n        /* \"contracts/Voting.sol\":4375:4384  voterInfo */\n      0x0\n        /* \"contracts/Voting.sol\":4375:4390  voterInfo[user] */\n      dup1\n        /* \"contracts/Voting.sol\":4385:4389  user */\n      dup5\n        /* \"contracts/Voting.sol\":4375:4390  voterInfo[user] */\n      0xffffffffffffffffffffffffffffffffffffffff\n      and\n      0xffffffffffffffffffffffffffffffffffffffff\n      and\n      dup2\n      mstore\n      0x20\n      add\n      swap1\n      dup2\n      mstore\n      0x20\n      add\n      0x0\n      keccak256\n        /* \"contracts/Voting.sol\":4375:4403  voterInfo[user].tokensBought */\n      0x1\n      add\n      sload\n        /* \"contracts/Voting.sol\":4405:4414  voterInfo */\n      0x0\n        /* \"contracts/Voting.sol\":4405:4420  voterInfo[user] */\n      dup1\n        /* \"contracts/Voting.sol\":4415:4419  user */\n      dup6\n        /* \"contracts/Voting.sol\":4405:4420  voterInfo[user] */\n      0xffffffffffffffffffffffffffffffffffffffff\n      and\n      0xffffffffffffffffffffffffffffffffffffffff\n      and\n      dup2\n      mstore\n      0x20\n      add\n      swap1\n      dup2\n      mstore\n      0x20\n      add\n      0x0\n      keccak256\n        /* \"contracts/Voting.sol\":4405:4443  voterInfo[user].tokensUsedPerCandidate */\n      0x2\n      add\n        /* \"contracts/Voting.sol\":4367:4444  return (voterInfo[user].tokensBought, voterInfo[user].tokensUsedPerCandidate) */\n      dup1\n      dup1\n      sload\n      dup1\n      0x20\n      mul\n      0x20\n      add\n      mload(0x40)\n      swap1\n      dup2\n      add\n      0x40\n      mstore\n      dup1\n      swap3\n      swap2\n      swap1\n      dup2\n      dup2\n      mstore\n      0x20\n      add\n      dup3\n      dup1\n      sload\n      dup1\n      iszero\n      tag_90\n      jumpi\n      0x20\n      mul\n      dup3\n      add\n      swap2\n      swap1\n      0x0\n      mstore\n      keccak256(0x0, 0x20)\n      swap1\n    tag_91:\n      dup2\n      sload\n      dup2\n      mstore\n      0x20\n      add\n      swap1\n      0x1\n      add\n      swap1\n      dup1\n      dup4\n      gt\n      tag_91\n      jumpi\n    tag_90:\n      pop\n      pop\n      pop\n      pop\n      pop\n      swap1\n      pop\n      swap2\n      pop\n      swap2\n      pop\n        /* \"contracts/Voting.sol\":4290:4449  function voterDetails(address user) view public returns (uint, uint[]) {... */\n      swap2\n      pop\n      swap2\n      jump\t// out\n        /* \"contracts/Voting.sol\":1270:1293  uint public totalTokens */\n    tag_38:\n      sload(0x3)\n      dup2\n      jump\t// out\n        /* \"contracts/Voting.sol\":1429:1451  uint public tokenPrice */\n    tag_42:\n      sload(0x5)\n      dup2\n      jump\t// out\n        /* \"contracts/Voting.sol\":4946:5033  function allCandidates() view public returns (string[]) {... */\n    tag_46:\n        /* \"contracts/Voting.sol\":4992:5000  string[] */\n      0x60\n        /* \"contracts/Voting.sol\":5015:5028  candidateList */\n      0x2\n        /* \"contracts/Voting.sol\":5008:5028  return candidateList */\n      dup1\n      sload\n      dup1\n      0x20\n      mul\n      0x20\n      add\n      mload(0x40)\n      swap1\n      dup2\n      add\n      0x40\n      mstore\n      dup1\n      swap3\n      swap2\n      swap1\n      dup2\n      dup2\n      mstore\n      0x20\n      add\n      0x0\n      swap1\n    tag_93:\n      dup3\n      dup3\n      lt\n      iszero\n      tag_94\n      jumpi\n      dup4\n      dup3\n      swap1\n      0x0\n      mstore\n      keccak256(0x0, 0x20)\n      add\n      dup1\n      sload\n      0x1\n      dup2\n      0x1\n      and\n      iszero\n      0x100\n      mul\n      sub\n      and\n      0x2\n      swap1\n      div\n      dup1\n      0x1f\n      add\n      0x20\n      dup1\n      swap2\n      div\n      mul\n      0x20\n      add\n      mload(0x40)\n      swap1\n      dup2\n      add\n      0x40\n      mstore\n      dup1\n      swap3\n      swap2\n      swap1\n      dup2\n      dup2\n      mstore\n      0x20\n      add\n      dup3\n      dup1\n      sload\n      0x1\n      dup2\n      0x1\n      and\n      iszero\n      0x100\n      mul\n      sub\n      and\n      0x2\n      swap1\n      div\n      dup1\n      iszero\n      tag_96\n      jumpi\n      dup1\n      0x1f\n      lt\n      tag_97\n      jumpi\n      0x100\n      dup1\n      dup4\n      sload\n      div\n      mul\n      dup4\n      mstore\n      swap2\n      0x20\n      add\n      swap2\n      jump(tag_96)\n    tag_97:\n      dup3\n      add\n      swap2\n      swap1\n      0x0\n      mstore\n      keccak256(0x0, 0x20)\n      swap1\n    tag_98:\n      dup2\n      sload\n      dup2\n      mstore\n      swap1\n      0x1\n      add\n      swap1\n      0x20\n      add\n      dup1\n      dup4\n      gt\n      tag_98\n      jumpi\n      dup3\n      swap1\n      sub\n      0x1f\n      and\n      dup3\n      add\n      swap2\n    tag_96:\n      pop\n      pop\n      pop\n      pop\n      pop\n      dup2\n      mstore\n      0x20\n      add\n      swap1\n      0x1\n      add\n      swap1\n      jump(tag_93)\n    tag_94:\n      pop\n      pop\n      pop\n      pop\n      swap1\n      pop\n        /* \"contracts/Voting.sol\":4946:5033  function allCandidates() view public returns (string[]) {... */\n      swap1\n      jump\t// out\n        /* \"contracts/Voting.sol\":4857:4942  function transferTo(address account) public {... */\n    tag_52:\n        /* \"contracts/Voting.sol\":4907:4914  account */\n      dup1\n        /* \"contracts/Voting.sol\":4907:4923  account.transfer */\n      0xffffffffffffffffffffffffffffffffffffffff\n      and\n        /* \"contracts/Voting.sol\":4907:4937  account.transfer(this.balance) */\n      0x8fc\n        /* \"contracts/Voting.sol\":4924:4928  this */\n      address\n        /* \"contracts/Voting.sol\":4924:4936  this.balance */\n      0xffffffffffffffffffffffffffffffffffffffff\n      and\n      balance\n        /* \"contracts/Voting.sol\":4907:4937  account.transfer(this.balance) */\n      swap1\n      dup2\n      iszero\n      mul\n      swap1\n      mload(0x40)\n      0x0\n      mload(0x40)\n      dup1\n      dup4\n      sub\n      dup2\n      dup6\n      dup9\n      dup9\n      call\n      swap4\n      pop\n      pop\n      pop\n      pop\n      iszero\n        /* \"--CODEGEN--\":8:17   */\n      dup1\n        /* \"--CODEGEN--\":5:7   */\n      iszero\n      tag_100\n      jumpi\n        /* \"--CODEGEN--\":45:61   */\n      returndatasize\n        /* \"--CODEGEN--\":42:43   */\n      0x0\n        /* \"--CODEGEN--\":39:40   */\n      dup1\n        /* \"--CODEGEN--\":24:62   */\n      returndatacopy\n        /* \"--CODEGEN--\":77:93   */\n      returndatasize\n        /* \"--CODEGEN--\":74:75   */\n      0x0\n        /* \"--CODEGEN--\":67:94   */\n      revert\n        /* \"--CODEGEN--\":5:7   */\n    tag_100:\n        /* \"contracts/Voting.sol\":4907:4937  account.transfer(this.balance) */\n      pop\n        /* \"contracts/Voting.sol\":4857:4942  function transferTo(address account) public {... */\n      pop\n      jump\t// out\n        /* \"contracts/Voting.sol\":3882:4188  function buy() payable public returns (uint) {... */\n    tag_54:\n        /* \"contracts/Voting.sol\":3921:3925  uint */\n      0x0\n        /* \"contracts/Voting.sol\":3933:3949  uint tokensToBuy */\n      dup1\n        /* \"contracts/Voting.sol\":3964:3974  tokenPrice */\n      sload(0x5)\n        /* \"contracts/Voting.sol\":3952:3961  msg.value */\n      callvalue\n        /* \"contracts/Voting.sol\":3952:3974  msg.value / tokenPrice */\n      dup2\n      iszero\n      iszero\n      tag_102\n      jumpi\n      invalid\n    tag_102:\n      div\n        /* \"contracts/Voting.sol\":3933:3974  uint tokensToBuy = msg.value / tokenPrice */\n      swap1\n      pop\n        /* \"contracts/Voting.sol\":4003:4016  balanceTokens */\n      sload(0x4)\n        /* \"contracts/Voting.sol\":3988:3999  tokensToBuy */\n      dup2\n        /* \"contracts/Voting.sol\":3988:4016  tokensToBuy <= balanceTokens */\n      gt\n      iszero\n        /* \"contracts/Voting.sol\":3980:4017  require(tokensToBuy <= balanceTokens) */\n      iszero\n      iszero\n      tag_103\n      jumpi\n      0x0\n      dup1\n      revert\n    tag_103:\n        /* \"contracts/Voting.sol\":4060:4070  msg.sender */\n      caller\n        /* \"contracts/Voting.sol\":4023:4032  voterInfo */\n      0x0\n        /* \"contracts/Voting.sol\":4023:4044  voterInfo[msg.sender] */\n      dup1\n        /* \"contracts/Voting.sol\":4033:4043  msg.sender */\n      caller\n        /* \"contracts/Voting.sol\":4023:4044  voterInfo[msg.sender] */\n      0xffffffffffffffffffffffffffffffffffffffff\n      and\n      0xffffffffffffffffffffffffffffffffffffffff\n      and\n      dup2\n      mstore\n      0x20\n      add\n      swap1\n      dup2\n      mstore\n      0x20\n      add\n      0x0\n      keccak256\n        /* \"contracts/Voting.sol\":4023:4057  voterInfo[msg.sender].voterAddress */\n      0x0\n      add\n      0x0\n        /* \"contracts/Voting.sol\":4023:4070  voterInfo[msg.sender].voterAddress = msg.sender */\n      0x100\n      exp\n      dup2\n      sload\n      dup2\n      0xffffffffffffffffffffffffffffffffffffffff\n      mul\n      not\n      and\n      swap1\n      dup4\n      0xffffffffffffffffffffffffffffffffffffffff\n      and\n      mul\n      or\n      swap1\n      sstore\n      pop\n        /* \"contracts/Voting.sol\":4114:4125  tokensToBuy */\n      dup1\n        /* \"contracts/Voting.sol\":4076:4085  voterInfo */\n      0x0\n        /* \"contracts/Voting.sol\":4076:4097  voterInfo[msg.sender] */\n      dup1\n        /* \"contracts/Voting.sol\":4086:4096  msg.sender */\n      caller\n        /* \"contracts/Voting.sol\":4076:4097  voterInfo[msg.sender] */\n      0xffffffffffffffffffffffffffffffffffffffff\n      and\n      0xffffffffffffffffffffffffffffffffffffffff\n      and\n      dup2\n      mstore\n      0x20\n      add\n      swap1\n      dup2\n      mstore\n      0x20\n      add\n      0x0\n      keccak256\n        /* \"contracts/Voting.sol\":4076:4110  voterInfo[msg.sender].tokensBought */\n      0x1\n      add\n      0x0\n        /* \"contracts/Voting.sol\":4076:4125  voterInfo[msg.sender].tokensBought += tokensToBuy */\n      dup3\n      dup3\n      sload\n      add\n      swap3\n      pop\n      pop\n      dup2\n      swap1\n      sstore\n      pop\n        /* \"contracts/Voting.sol\":4148:4159  tokensToBuy */\n      dup1\n        /* \"contracts/Voting.sol\":4131:4144  balanceTokens */\n      0x4\n      0x0\n        /* \"contracts/Voting.sol\":4131:4159  balanceTokens -= tokensToBuy */\n      dup3\n      dup3\n      sload\n      sub\n      swap3\n      pop\n      pop\n      dup2\n      swap1\n      sstore\n      pop\n        /* \"contracts/Voting.sol\":4172:4183  tokensToBuy */\n      dup1\n        /* \"contracts/Voting.sol\":4165:4183  return tokensToBuy */\n      swap2\n      pop\n        /* \"contracts/Voting.sol\":3882:4188  function buy() payable public returns (uint) {... */\n      pop\n      swap1\n      jump\t// out\n        /* \"contracts/Voting.sol\":2111:2987  function voteForCandidate(string candidate, uint votesInTokens) public {... */\n    tag_60:\n        /* \"contracts/Voting.sol\":2188:2198  uint index */\n      0x0\n        /* \"contracts/Voting.sol\":2444:2450  uint i */\n      dup1\n        /* \"contracts/Voting.sol\":2633:2653  uint availableTokens */\n      0x0\n        /* \"contracts/Voting.sol\":2201:2228  indexOfCandidate(candidate) */\n      tag_105\n        /* \"contracts/Voting.sol\":2218:2227  candidate */\n      dup6\n        /* \"contracts/Voting.sol\":2201:2217  indexOfCandidate */\n      tag_17\n        /* \"contracts/Voting.sol\":2201:2228  indexOfCandidate(candidate) */\n      jump\t// in\n    tag_105:\n        /* \"contracts/Voting.sol\":2188:2228  uint index = indexOfCandidate(candidate) */\n      swap3\n      pop\n        /* \"contracts/Voting.sol\":2256:2258  -1 */\n      0xffffffffffffffffffffffffffffffffffffffffffffffffffffffffffffffff\n        /* \"contracts/Voting.sol\":2242:2247  index */\n      dup4\n        /* \"contracts/Voting.sol\":2242:2259  index != uint(-1) */\n      eq\n      iszero\n        /* \"contracts/Voting.sol\":2234:2260  require(index != uint(-1)) */\n      iszero\n      iszero\n      tag_106\n      jumpi\n      0x0\n      dup1\n      revert\n    tag_106:\n        /* \"contracts/Voting.sol\":2429:2430  0 */\n      0x0\n        /* \"contracts/Voting.sol\":2374:2383  voterInfo */\n      dup1\n        /* \"contracts/Voting.sol\":2374:2395  voterInfo[msg.sender] */\n      0x0\n        /* \"contracts/Voting.sol\":2384:2394  msg.sender */\n      caller\n        /* \"contracts/Voting.sol\":2374:2395  voterInfo[msg.sender] */\n      0xffffffffffffffffffffffffffffffffffffffff\n      and\n      0xffffffffffffffffffffffffffffffffffffffff\n      and\n      dup2\n      mstore\n      0x20\n      add\n      swap1\n      dup2\n      mstore\n      0x20\n      add\n      0x0\n      keccak256\n        /* \"contracts/Voting.sol\":2374:2418  voterInfo[msg.sender].tokensUsedPerCandidate */\n      0x2\n      add\n        /* \"contracts/Voting.sol\":2374:2425  voterInfo[msg.sender].tokensUsedPerCandidate.length */\n      dup1\n      sload\n      swap1\n      pop\n        /* \"contracts/Voting.sol\":2374:2430  voterInfo[msg.sender].tokensUsedPerCandidate.length == 0 */\n      eq\n        /* \"contracts/Voting.sol\":2370:2564  if (voterInfo[msg.sender].tokensUsedPerCandidate.length == 0) {... */\n      iszero\n      tag_107\n      jumpi\n        /* \"contracts/Voting.sol\":2453:2454  0 */\n      0x0\n        /* \"contracts/Voting.sol\":2444:2454  uint i = 0 */\n      swap2\n      pop\n        /* \"contracts/Voting.sol\":2440:2558  for(uint i = 0; i < candidateList.length; i++) {... */\n    tag_108:\n        /* \"contracts/Voting.sol\":2460:2473  candidateList */\n      0x2\n        /* \"contracts/Voting.sol\":2460:2480  candidateList.length */\n      dup1\n      sload\n      swap1\n      pop\n        /* \"contracts/Voting.sol\":2456:2457  i */\n      dup3\n        /* \"contracts/Voting.sol\":2456:2480  i < candidateList.length */\n      lt\n        /* \"contracts/Voting.sol\":2440:2558  for(uint i = 0; i < candidateList.length; i++) {... */\n      iszero\n      tag_109\n      jumpi\n        /* \"contracts/Voting.sol\":2497:2506  voterInfo */\n      0x0\n        /* \"contracts/Voting.sol\":2497:2518  voterInfo[msg.sender] */\n      dup1\n        /* \"contracts/Voting.sol\":2507:2517  msg.sender */\n      caller\n        /* \"contracts/Voting.sol\":2497:2518  voterInfo[msg.sender] */\n      0xffffffffffffffffffffffffffffffffffffffff\n      and\n      0xffffffffffffffffffffffffffffffffffffffff\n      and\n      dup2\n      mstore\n      0x20\n      add\n      swap1\n      dup2\n      mstore\n      0x20\n      add\n      0x0\n      keccak256\n        /* \"contracts/Voting.sol\":2497:2541  voterInfo[msg.sender].tokensUsedPerCandidate */\n      0x2\n      add\n        /* \"contracts/Voting.sol\":2547:2548  0 */\n      0x0\n        /* \"contracts/Voting.sol\":2497:2549  voterInfo[msg.sender].tokensUsedPerCandidate.push(0) */\n      swap1\n      dup1\n        /* \"--CODEGEN--\":39:40   */\n      0x1\n        /* \"--CODEGEN--\":33:36   */\n      dup2\n        /* \"--CODEGEN--\":27:37   */\n      sload\n        /* \"--CODEGEN--\":23:41   */\n      add\n        /* \"--CODEGEN--\":57:67   */\n      dup1\n        /* \"--CODEGEN--\":52:55   */\n      dup3\n        /* \"--CODEGEN--\":45:68   */\n      sstore\n        /* \"--CODEGEN--\":79:89   */\n      dup1\n        /* \"--CODEGEN--\":72:89   */\n      swap2\n      pop\n        /* \"--CODEGEN--\":0:93   */\n      pop\n        /* \"contracts/Voting.sol\":2497:2549  voterInfo[msg.sender].tokensUsedPerCandidate.push(0) */\n      swap1\n      0x1\n      dup3\n      sub\n      swap1\n      0x0\n      mstore\n      keccak256(0x0, 0x20)\n      add\n      0x0\n      swap1\n      swap2\n      swap3\n      swap1\n      swap2\n      swap1\n      swap2\n      pop\n      sstore\n      pop\n        /* \"contracts/Voting.sol\":2482:2485  i++ */\n      dup2\n      dup1\n      0x1\n      add\n      swap3\n      pop\n      pop\n        /* \"contracts/Voting.sol\":2440:2558  for(uint i = 0; i < candidateList.length; i++) {... */\n      jump(tag_108)\n    tag_109:\n        /* \"contracts/Voting.sol\":2370:2564  if (voterInfo[msg.sender].tokensUsedPerCandidate.length == 0) {... */\n    tag_107:\n        /* \"contracts/Voting.sol\":2693:2754  totalTokensUsed(voterInfo[msg.sender].tokensUsedPerCandidate) */\n      tag_112\n        /* \"contracts/Voting.sol\":2709:2718  voterInfo */\n      0x0\n        /* \"contracts/Voting.sol\":2709:2730  voterInfo[msg.sender] */\n      dup1\n        /* \"contracts/Voting.sol\":2719:2729  msg.sender */\n      caller\n        /* \"contracts/Voting.sol\":2709:2730  voterInfo[msg.sender] */\n      0xffffffffffffffffffffffffffffffffffffffff\n      and\n      0xffffffffffffffffffffffffffffffffffffffff\n      and\n      dup2\n      mstore\n      0x20\n      add\n      swap1\n      dup2\n      mstore\n      0x20\n      add\n      0x0\n      keccak256\n        /* \"contracts/Voting.sol\":2709:2753  voterInfo[msg.sender].tokensUsedPerCandidate */\n      0x2\n      add\n        /* \"contracts/Voting.sol\":2693:2754  totalTokensUsed(voterInfo[msg.sender].tokensUsedPerCandidate) */\n      dup1\n      sload\n      dup1\n      0x20\n      mul\n      0x20\n      add\n      mload(0x40)\n      swap1\n      dup2\n      add\n      0x40\n      mstore\n      dup1\n      swap3\n      swap2\n      swap1\n      dup2\n      dup2\n      mstore\n      0x20\n      add\n      dup3\n      dup1\n      sload\n      dup1\n      iszero\n      tag_113\n      jumpi\n      0x20\n      mul\n      dup3\n      add\n      swap2\n      swap1\n      0x0\n      mstore\n      keccak256(0x0, 0x20)\n      swap1\n    tag_114:\n      dup2\n      sload\n      dup2\n      mstore\n      0x20\n      add\n      swap1\n      0x1\n      add\n      swap1\n      dup1\n      dup4\n      gt\n      tag_114\n      jumpi\n    tag_113:\n      pop\n      pop\n      pop\n      pop\n      pop\n        /* \"contracts/Voting.sol\":2693:2708  totalTokensUsed */\n      tag_115\n        /* \"contracts/Voting.sol\":2693:2754  totalTokensUsed(voterInfo[msg.sender].tokensUsedPerCandidate) */\n      jump\t// in\n    tag_112:\n        /* \"contracts/Voting.sol\":2656:2665  voterInfo */\n      0x0\n        /* \"contracts/Voting.sol\":2656:2677  voterInfo[msg.sender] */\n      dup1\n        /* \"contracts/Voting.sol\":2666:2676  msg.sender */\n      caller\n        /* \"contracts/Voting.sol\":2656:2677  voterInfo[msg.sender] */\n      0xffffffffffffffffffffffffffffffffffffffff\n      and\n      0xffffffffffffffffffffffffffffffffffffffff\n      and\n      dup2\n      mstore\n      0x20\n      add\n      swap1\n      dup2\n      mstore\n      0x20\n      add\n      0x0\n      keccak256\n        /* \"contracts/Voting.sol\":2656:2690  voterInfo[msg.sender].tokensBought */\n      0x1\n      add\n      sload\n        /* \"contracts/Voting.sol\":2656:2754  voterInfo[msg.sender].tokensBought - totalTokensUsed(voterInfo[msg.sender].tokensUsedPerCandidate) */\n      sub\n        /* \"contracts/Voting.sol\":2633:2754  uint availableTokens = voterInfo[msg.sender].tokensBought - totalTokensUsed(voterInfo[msg.sender].tokensUsedPerCandidate) */\n      swap1\n      pop\n        /* \"contracts/Voting.sol\":2787:2800  votesInTokens */\n      dup4\n        /* \"contracts/Voting.sol\":2768:2783  availableTokens */\n      dup2\n        /* \"contracts/Voting.sol\":2768:2800  availableTokens >= votesInTokens */\n      lt\n      iszero\n        /* \"contracts/Voting.sol\":2760:2801  require(availableTokens >= votesInTokens) */\n      iszero\n      iszero\n      tag_116\n      jumpi\n      0x0\n      dup1\n      revert\n    tag_116:\n        /* \"contracts/Voting.sol\":2836:2849  votesInTokens */\n      dup4\n        /* \"contracts/Voting.sol\":2808:2821  votesReceived */\n      0x1\n        /* \"contracts/Voting.sol\":2822:2831  candidate */\n      dup7\n        /* \"contracts/Voting.sol\":2808:2832  votesReceived[candidate] */\n      mload(0x40)\n      dup1\n      dup3\n      dup1\n      mload\n      swap1\n      0x20\n      add\n      swap1\n      dup1\n      dup4\n      dup4\n        /* \"--CODEGEN--\":36:189   */\n    tag_117:\n        /* \"--CODEGEN--\":66:68   */\n      0x20\n        /* \"--CODEGEN--\":61:64   */\n      dup4\n        /* \"--CODEGEN--\":58:69   */\n      lt\n        /* \"--CODEGEN--\":51:70   */\n      iszero\n        /* \"--CODEGEN--\":36:189   */\n      iszero\n      tag_118\n      jumpi\n        /* \"--CODEGEN--\":182:185   */\n      dup1\n        /* \"--CODEGEN--\":176:186   */\n      mload\n        /* \"--CODEGEN--\":171:174   */\n      dup3\n        /* \"--CODEGEN--\":164:187   */\n      mstore\n        /* \"--CODEGEN--\":98:100   */\n      0x20\n        /* \"--CODEGEN--\":93:96   */\n      dup3\n        /* \"--CODEGEN--\":89:101   */\n      add\n        /* \"--CODEGEN--\":82:101   */\n      swap2\n      pop\n        /* \"--CODEGEN--\":123:125   */\n      0x20\n        /* \"--CODEGEN--\":118:121   */\n      dup2\n        /* \"--CODEGEN--\":114:126   */\n      add\n        /* \"--CODEGEN--\":107:126   */\n      swap1\n      pop\n        /* \"--CODEGEN--\":148:150   */\n      0x20\n        /* \"--CODEGEN--\":143:146   */\n      dup4\n        /* \"--CODEGEN--\":139:151   */\n      sub\n        /* \"--CODEGEN--\":132:151   */\n      swap3\n      pop\n        /* \"--CODEGEN--\":36:189   */\n      jump(tag_117)\n    tag_118:\n        /* \"--CODEGEN--\":274:275   */\n      0x1\n        /* \"--CODEGEN--\":267:270   */\n      dup4\n        /* \"--CODEGEN--\":263:265   */\n      0x20\n        /* \"--CODEGEN--\":259:271   */\n      sub\n        /* \"--CODEGEN--\":254:257   */\n      0x100\n        /* \"--CODEGEN--\":250:272   */\n      exp\n        /* \"--CODEGEN--\":246:276   */\n      sub\n        /* \"--CODEGEN--\":315:319   */\n      dup1\n        /* \"--CODEGEN--\":311:320   */\n      not\n        /* \"--CODEGEN--\":305:308   */\n      dup3\n        /* \"--CODEGEN--\":299:309   */\n      mload\n        /* \"--CODEGEN--\":295:321   */\n      and\n        /* \"--CODEGEN--\":356:360   */\n      dup2\n        /* \"--CODEGEN--\":350:353   */\n      dup5\n        /* \"--CODEGEN--\":344:354   */\n      mload\n        /* \"--CODEGEN--\":340:361   */\n      and\n        /* \"--CODEGEN--\":389:396   */\n      dup1\n        /* \"--CODEGEN--\":380:387   */\n      dup3\n        /* \"--CODEGEN--\":377:397   */\n      or\n        /* \"--CODEGEN--\":372:375   */\n      dup6\n        /* \"--CODEGEN--\":365:398   */\n      mstore\n        /* \"--CODEGEN--\":3:402   */\n      pop\n      pop\n      pop\n        /* \"contracts/Voting.sol\":2808:2832  votesReceived[candidate] */\n      pop\n      pop\n      pop\n      swap1\n      pop\n      add\n      swap2\n      pop\n      pop\n      swap1\n      dup2\n      mstore\n      0x20\n      add\n      mload(0x40)\n      dup1\n      swap2\n      sub\n      swap1\n      keccak256\n      0x0\n        /* \"contracts/Voting.sol\":2808:2849  votesReceived[candidate] += votesInTokens */\n      dup3\n      dup3\n      sload\n      add\n      swap3\n      pop\n      pop\n      dup2\n      swap1\n      sstore\n      pop\n        /* \"contracts/Voting.sol\":2969:2982  votesInTokens */\n      dup4\n        /* \"contracts/Voting.sol\":2914:2923  voterInfo */\n      0x0\n        /* \"contracts/Voting.sol\":2914:2935  voterInfo[msg.sender] */\n      dup1\n        /* \"contracts/Voting.sol\":2924:2934  msg.sender */\n      caller\n        /* \"contracts/Voting.sol\":2914:2935  voterInfo[msg.sender] */\n      0xffffffffffffffffffffffffffffffffffffffff\n      and\n      0xffffffffffffffffffffffffffffffffffffffff\n      and\n      dup2\n      mstore\n      0x20\n      add\n      swap1\n      dup2\n      mstore\n      0x20\n      add\n      0x0\n      keccak256\n        /* \"contracts/Voting.sol\":2914:2958  voterInfo[msg.sender].tokensUsedPerCandidate */\n      0x2\n      add\n        /* \"contracts/Voting.sol\":2959:2964  index */\n      dup5\n        /* \"contracts/Voting.sol\":2914:2965  voterInfo[msg.sender].tokensUsedPerCandidate[index] */\n      dup2\n      sload\n      dup2\n      lt\n      iszero\n      iszero\n      tag_120\n      jumpi\n      invalid\n    tag_120:\n      swap1\n      0x0\n      mstore\n      keccak256(0x0, 0x20)\n      add\n      0x0\n        /* \"contracts/Voting.sol\":2914:2982  voterInfo[msg.sender].tokensUsedPerCandidate[index] += votesInTokens */\n      dup3\n      dup3\n      sload\n      add\n      swap3\n      pop\n      pop\n      dup2\n      swap1\n      sstore\n      pop\n        /* \"contracts/Voting.sol\":2111:2987  function voteForCandidate(string candidate, uint votesInTokens) public {... */\n      pop\n      pop\n      pop\n      pop\n      pop\n      jump\t// out\n        /* \"contracts/Voting.sol\":1348:1373  uint public balanceTokens */\n    tag_63:\n      sload(0x4)\n      dup2\n      jump\t// out\n        /* \"contracts/Voting.sol\":3049:3319  function totalTokensUsed(uint[] _tokensUsedPerCandidate) private pure returns (uint) {... */\n    tag_115:\n        /* \"contracts/Voting.sol\":3128:3132  uint */\n      0x0\n        /* \"contracts/Voting.sol\":3140:3160  uint totalUsedTokens */\n      dup1\n        /* \"contracts/Voting.sol\":3174:3180  uint i */\n      0x0\n        /* \"contracts/Voting.sol\":3163:3164  0 */\n      dup1\n        /* \"contracts/Voting.sol\":3140:3164  uint totalUsedTokens = 0 */\n      swap2\n      pop\n        /* \"contracts/Voting.sol\":3183:3184  0 */\n      0x0\n        /* \"contracts/Voting.sol\":3174:3184  uint i = 0 */\n      swap1\n      pop\n        /* \"contracts/Voting.sol\":3170:3287  for(uint i = 0; i < _tokensUsedPerCandidate.length; i++) {... */\n    tag_123:\n        /* \"contracts/Voting.sol\":3190:3213  _tokensUsedPerCandidate */\n      dup4\n        /* \"contracts/Voting.sol\":3190:3220  _tokensUsedPerCandidate.length */\n      mload\n        /* \"contracts/Voting.sol\":3186:3187  i */\n      dup2\n        /* \"contracts/Voting.sol\":3186:3220  i < _tokensUsedPerCandidate.length */\n      lt\n        /* \"contracts/Voting.sol\":3170:3287  for(uint i = 0; i < _tokensUsedPerCandidate.length; i++) {... */\n      iszero\n      tag_124\n      jumpi\n        /* \"contracts/Voting.sol\":3254:3277  _tokensUsedPerCandidate */\n      dup4\n        /* \"contracts/Voting.sol\":3278:3279  i */\n      dup2\n        /* \"contracts/Voting.sol\":3254:3280  _tokensUsedPerCandidate[i] */\n      dup2\n      mload\n      dup2\n      lt\n      iszero\n      iszero\n      tag_126\n      jumpi\n      invalid\n    tag_126:\n      swap1\n      0x20\n      add\n      swap1\n      0x20\n      mul\n      add\n      mload\n        /* \"contracts/Voting.sol\":3235:3280  totalUsedTokens += _tokensUsedPerCandidate[i] */\n      dup3\n      add\n      swap2\n      pop\n        /* \"contracts/Voting.sol\":3222:3225  i++ */\n      dup1\n      dup1\n      0x1\n      add\n      swap2\n      pop\n      pop\n        /* \"contracts/Voting.sol\":3170:3287  for(uint i = 0; i < _tokensUsedPerCandidate.length; i++) {... */\n      jump(tag_123)\n    tag_124:\n        /* \"contracts/Voting.sol\":3299:3314  totalUsedTokens */\n      dup2\n        /* \"contracts/Voting.sol\":3292:3314  return totalUsedTokens */\n      swap3\n      pop\n        /* \"contracts/Voting.sol\":3049:3319  function totalTokensUsed(uint[] _tokensUsedPerCandidate) private pure returns (uint) {... */\n      pop\n      pop\n      swap2\n      swap1\n      pop\n      jump\t// out\n        /* \"--CODEGEN--\":5:123   */\n    tag_128:\n      0x0\n        /* \"--CODEGEN--\":72:118   */\n      tag_129\n        /* \"--CODEGEN--\":110:116   */\n      dup3\n        /* \"--CODEGEN--\":97:117   */\n      calldataload\n        /* \"--CODEGEN--\":72:118   */\n      jump(tag_130)\n    tag_129:\n        /* \"--CODEGEN--\":63:118   */\n      swap1\n      pop\n        /* \"--CODEGEN--\":57:123   */\n      swap3\n      swap2\n      pop\n      pop\n      jump\n        /* \"--CODEGEN--\":131:573   */\n    tag_132:\n      0x0\n        /* \"--CODEGEN--\":233:236   */\n      dup3\n        /* \"--CODEGEN--\":226:230   */\n      0x1f\n        /* \"--CODEGEN--\":218:224   */\n      dup4\n        /* \"--CODEGEN--\":214:231   */\n      add\n        /* \"--CODEGEN--\":210:237   */\n      slt\n        /* \"--CODEGEN--\":203:238   */\n      iszero\n        /* \"--CODEGEN--\":200:202   */\n      iszero\n      tag_133\n      jumpi\n        /* \"--CODEGEN--\":251:252   */\n      0x0\n        /* \"--CODEGEN--\":248:249   */\n      dup1\n        /* \"--CODEGEN--\":241:253   */\n      revert\n        /* \"--CODEGEN--\":200:202   */\n    tag_133:\n        /* \"--CODEGEN--\":288:294   */\n      dup2\n        /* \"--CODEGEN--\":275:295   */\n      calldataload\n        /* \"--CODEGEN--\":310:375   */\n      tag_134\n        /* \"--CODEGEN--\":325:374   */\n      tag_135\n        /* \"--CODEGEN--\":367:373   */\n      dup3\n        /* \"--CODEGEN--\":325:374   */\n      jump(tag_136)\n    tag_135:\n        /* \"--CODEGEN--\":310:375   */\n      jump(tag_137)\n    tag_134:\n        /* \"--CODEGEN--\":301:375   */\n      swap2\n      pop\n        /* \"--CODEGEN--\":395:401   */\n      dup1\n        /* \"--CODEGEN--\":388:393   */\n      dup3\n        /* \"--CODEGEN--\":381:402   */\n      mstore\n        /* \"--CODEGEN--\":431:435   */\n      0x20\n        /* \"--CODEGEN--\":423:429   */\n      dup4\n        /* \"--CODEGEN--\":419:436   */\n      add\n        /* \"--CODEGEN--\":464:468   */\n      0x20\n        /* \"--CODEGEN--\":457:462   */\n      dup4\n        /* \"--CODEGEN--\":453:469   */\n      add\n        /* \"--CODEGEN--\":499:502   */\n      dup6\n        /* \"--CODEGEN--\":490:496   */\n      dup4\n        /* \"--CODEGEN--\":485:488   */\n      dup4\n        /* \"--CODEGEN--\":481:497   */\n      add\n        /* \"--CODEGEN--\":478:503   */\n      gt\n        /* \"--CODEGEN--\":475:477   */\n      iszero\n      tag_138\n      jumpi\n        /* \"--CODEGEN--\":516:517   */\n      0x0\n        /* \"--CODEGEN--\":513:514   */\n      dup1\n        /* \"--CODEGEN--\":506:518   */\n      revert\n        /* \"--CODEGEN--\":475:477   */\n    tag_138:\n        /* \"--CODEGEN--\":526:567   */\n      tag_139\n        /* \"--CODEGEN--\":560:566   */\n      dup4\n        /* \"--CODEGEN--\":555:558   */\n      dup3\n        /* \"--CODEGEN--\":550:553   */\n      dup5\n        /* \"--CODEGEN--\":526:567   */\n      jump(tag_140)\n    tag_139:\n        /* \"--CODEGEN--\":193:573   */\n      pop\n      pop\n      pop\n      swap3\n      swap2\n      pop\n      pop\n      jump\n        /* \"--CODEGEN--\":581:699   */\n    tag_142:\n      0x0\n        /* \"--CODEGEN--\":648:694   */\n      tag_143\n        /* \"--CODEGEN--\":686:692   */\n      dup3\n        /* \"--CODEGEN--\":673:693   */\n      calldataload\n        /* \"--CODEGEN--\":648:694   */\n      jump(tag_144)\n    tag_143:\n        /* \"--CODEGEN--\":639:694   */\n      swap1\n      pop\n        /* \"--CODEGEN--\":633:699   */\n      swap3\n      swap2\n      pop\n      pop\n      jump\n        /* \"--CODEGEN--\":706:947   */\n    tag_32:\n      0x0\n        /* \"--CODEGEN--\":810:812   */\n      0x20\n        /* \"--CODEGEN--\":798:807   */\n      dup3\n        /* \"--CODEGEN--\":789:796   */\n      dup5\n        /* \"--CODEGEN--\":785:808   */\n      sub\n        /* \"--CODEGEN--\":781:813   */\n      slt\n        /* \"--CODEGEN--\":778:780   */\n      iszero\n      tag_146\n      jumpi\n        /* \"--CODEGEN--\":826:827   */\n      0x0\n        /* \"--CODEGEN--\":823:824   */\n      dup1\n        /* \"--CODEGEN--\":816:828   */\n      revert\n        /* \"--CODEGEN--\":778:780   */\n    tag_146:\n        /* \"--CODEGEN--\":861:862   */\n      0x0\n        /* \"--CODEGEN--\":878:931   */\n      tag_147\n        /* \"--CODEGEN--\":923:930   */\n      dup5\n        /* \"--CODEGEN--\":914:920   */\n      dup3\n        /* \"--CODEGEN--\":903:912   */\n      dup6\n        /* \"--CODEGEN--\":899:921   */\n      add\n        /* \"--CODEGEN--\":878:931   */\n      jump(tag_128)\n    tag_147:\n        /* \"--CODEGEN--\":868:931   */\n      swap2\n      pop\n        /* \"--CODEGEN--\":840:937   */\n      pop\n        /* \"--CODEGEN--\":772:947   */\n      swap3\n      swap2\n      pop\n      pop\n      jump\n        /* \"--CODEGEN--\":954:1301   */\n    tag_16:\n      0x0\n        /* \"--CODEGEN--\":1068:1070   */\n      0x20\n        /* \"--CODEGEN--\":1056:1065   */\n      dup3\n        /* \"--CODEGEN--\":1047:1054   */\n      dup5\n        /* \"--CODEGEN--\":1043:1066   */\n      sub\n        /* \"--CODEGEN--\":1039:1071   */\n      slt\n        /* \"--CODEGEN--\":1036:1038   */\n      iszero\n      tag_149\n      jumpi\n        /* \"--CODEGEN--\":1084:1085   */\n      0x0\n        /* \"--CODEGEN--\":1081:1082   */\n      dup1\n        /* \"--CODEGEN--\":1074:1086   */\n      revert\n        /* \"--CODEGEN--\":1036:1038   */\n    tag_149:\n        /* \"--CODEGEN--\":1147:1148   */\n      0x0\n        /* \"--CODEGEN--\":1136:1145   */\n      dup3\n        /* \"--CODEGEN--\":1132:1149   */\n      add\n        /* \"--CODEGEN--\":1119:1150   */\n      calldataload\n        /* \"--CODEGEN--\":1170:1188   */\n      0xffffffffffffffff\n        /* \"--CODEGEN--\":1162:1168   */\n      dup2\n        /* \"--CODEGEN--\":1159:1189   */\n      gt\n        /* \"--CODEGEN--\":1156:1158   */\n      iszero\n      tag_150\n      jumpi\n        /* \"--CODEGEN--\":1202:1203   */\n      0x0\n        /* \"--CODEGEN--\":1199:1200   */\n      dup1\n        /* \"--CODEGEN--\":1192:1204   */\n      revert\n        /* \"--CODEGEN--\":1156:1158   */\n    tag_150:\n        /* \"--CODEGEN--\":1222:1285   */\n      tag_151\n        /* \"--CODEGEN--\":1277:1284   */\n      dup5\n        /* \"--CODEGEN--\":1268:1274   */\n      dup3\n        /* \"--CODEGEN--\":1257:1266   */\n      dup6\n        /* \"--CODEGEN--\":1253:1275   */\n      add\n        /* \"--CODEGEN--\":1222:1285   */\n      jump(tag_132)\n    tag_151:\n        /* \"--CODEGEN--\":1212:1285   */\n      swap2\n      pop\n        /* \"--CODEGEN--\":1098:1291   */\n      pop\n        /* \"--CODEGEN--\":1030:1301   */\n      swap3\n      swap2\n      pop\n      pop\n      jump\n        /* \"--CODEGEN--\":1308:1780   */\n    tag_59:\n      0x0\n      dup1\n        /* \"--CODEGEN--\":1439:1441   */\n      0x40\n        /* \"--CODEGEN--\":1427:1436   */\n      dup4\n        /* \"--CODEGEN--\":1418:1425   */\n      dup6\n        /* \"--CODEGEN--\":1414:1437   */\n      sub\n        /* \"--CODEGEN--\":1410:1442   */\n      slt\n        /* \"--CODEGEN--\":1407:1409   */\n      iszero\n      tag_153\n      jumpi\n        /* \"--CODEGEN--\":1455:1456   */\n      0x0\n        /* \"--CODEGEN--\":1452:1453   */\n      dup1\n        /* \"--CODEGEN--\":1445:1457   */\n      revert\n        /* \"--CODEGEN--\":1407:1409   */\n    tag_153:\n        /* \"--CODEGEN--\":1518:1519   */\n      0x0\n        /* \"--CODEGEN--\":1507:1516   */\n      dup4\n        /* \"--CODEGEN--\":1503:1520   */\n      add\n        /* \"--CODEGEN--\":1490:1521   */\n      calldataload\n        /* \"--CODEGEN--\":1541:1559   */\n      0xffffffffffffffff\n        /* \"--CODEGEN--\":1533:1539   */\n      dup2\n        /* \"--CODEGEN--\":1530:1560   */\n      gt\n        /* \"--CODEGEN--\":1527:1529   */\n      iszero\n      tag_154\n      jumpi\n        /* \"--CODEGEN--\":1573:1574   */\n      0x0\n        /* \"--CODEGEN--\":1570:1571   */\n      dup1\n        /* \"--CODEGEN--\":1563:1575   */\n      revert\n        /* \"--CODEGEN--\":1527:1529   */\n    tag_154:\n        /* \"--CODEGEN--\":1593:1656   */\n      tag_155\n        /* \"--CODEGEN--\":1648:1655   */\n      dup6\n        /* \"--CODEGEN--\":1639:1645   */\n      dup3\n        /* \"--CODEGEN--\":1628:1637   */\n      dup7\n        /* \"--CODEGEN--\":1624:1646   */\n      add\n        /* \"--CODEGEN--\":1593:1656   */\n      jump(tag_132)\n    tag_155:\n        /* \"--CODEGEN--\":1583:1656   */\n      swap3\n      pop\n        /* \"--CODEGEN--\":1469:1662   */\n      pop\n        /* \"--CODEGEN--\":1693:1695   */\n      0x20\n        /* \"--CODEGEN--\":1711:1764   */\n      tag_156\n        /* \"--CODEGEN--\":1756:1763   */\n      dup6\n        /* \"--CODEGEN--\":1747:1753   */\n      dup3\n        /* \"--CODEGEN--\":1736:1745   */\n      dup7\n        /* \"--CODEGEN--\":1732:1754   */\n      add\n        /* \"--CODEGEN--\":1711:1764   */\n      jump(tag_142)\n    tag_156:\n        /* \"--CODEGEN--\":1701:1764   */\n      swap2\n      pop\n        /* \"--CODEGEN--\":1672:1770   */\n      pop\n        /* \"--CODEGEN--\":1401:1780   */\n      swap3\n      pop\n      swap3\n      swap1\n      pop\n      jump\n        /* \"--CODEGEN--\":1816:2589   */\n    tag_158:\n      0x0\n        /* \"--CODEGEN--\":1963:2023   */\n      tag_159\n        /* \"--CODEGEN--\":2017:2022   */\n      dup3\n        /* \"--CODEGEN--\":1963:2023   */\n      jump(tag_160)\n    tag_159:\n        /* \"--CODEGEN--\":2041:2047   */\n      dup1\n        /* \"--CODEGEN--\":2036:2039   */\n      dup5\n        /* \"--CODEGEN--\":2029:2048   */\n      mstore\n        /* \"--CODEGEN--\":2065:2069   */\n      0x20\n        /* \"--CODEGEN--\":2060:2063   */\n      dup5\n        /* \"--CODEGEN--\":2056:2070   */\n      add\n        /* \"--CODEGEN--\":2049:2070   */\n      swap4\n      pop\n        /* \"--CODEGEN--\":2113:2116   */\n      dup4\n        /* \"--CODEGEN--\":2155:2159   */\n      0x20\n        /* \"--CODEGEN--\":2147:2153   */\n      dup3\n        /* \"--CODEGEN--\":2143:2160   */\n      mul\n        /* \"--CODEGEN--\":2138:2141   */\n      dup6\n        /* \"--CODEGEN--\":2134:2161   */\n      add\n        /* \"--CODEGEN--\":2181:2243   */\n      tag_161\n        /* \"--CODEGEN--\":2237:2242   */\n      dup6\n        /* \"--CODEGEN--\":2181:2243   */\n      jump(tag_162)\n    tag_161:\n        /* \"--CODEGEN--\":2264:2265   */\n      0x0\n        /* \"--CODEGEN--\":2249:2550   */\n    tag_163:\n        /* \"--CODEGEN--\":2274:2280   */\n      dup5\n        /* \"--CODEGEN--\":2271:2272   */\n      dup2\n        /* \"--CODEGEN--\":2268:2281   */\n      lt\n        /* \"--CODEGEN--\":2249:2550   */\n      iszero\n      tag_164\n      jumpi\n        /* \"--CODEGEN--\":2336:2345   */\n      dup4\n        /* \"--CODEGEN--\":2330:2334   */\n      dup4\n        /* \"--CODEGEN--\":2326:2346   */\n      sub\n        /* \"--CODEGEN--\":2321:2324   */\n      dup9\n        /* \"--CODEGEN--\":2314:2347   */\n      mstore\n        /* \"--CODEGEN--\":2362:2432   */\n      tag_166\n        /* \"--CODEGEN--\":2427:2431   */\n      dup4\n        /* \"--CODEGEN--\":2418:2424   */\n      dup4\n        /* \"--CODEGEN--\":2412:2425   */\n      mload\n        /* \"--CODEGEN--\":2362:2432   */\n      jump(tag_167)\n    tag_166:\n        /* \"--CODEGEN--\":2354:2432   */\n      swap3\n      pop\n        /* \"--CODEGEN--\":2449:2515   */\n      tag_168\n        /* \"--CODEGEN--\":2508:2514   */\n      dup3\n        /* \"--CODEGEN--\":2449:2515   */\n      jump(tag_169)\n    tag_168:\n        /* \"--CODEGEN--\":2439:2515   */\n      swap2\n      pop\n        /* \"--CODEGEN--\":2538:2542   */\n      0x20\n        /* \"--CODEGEN--\":2533:2536   */\n      dup9\n        /* \"--CODEGEN--\":2529:2543   */\n      add\n        /* \"--CODEGEN--\":2522:2543   */\n      swap8\n      pop\n        /* \"--CODEGEN--\":2296:2297   */\n      0x1\n        /* \"--CODEGEN--\":2293:2294   */\n      dup2\n        /* \"--CODEGEN--\":2289:2298   */\n      add\n        /* \"--CODEGEN--\":2284:2298   */\n      swap1\n      pop\n        /* \"--CODEGEN--\":2249:2550   */\n      jump(tag_163)\n    tag_164:\n        /* \"--CODEGEN--\":2253:2267   */\n      pop\n        /* \"--CODEGEN--\":2563:2567   */\n      dup2\n        /* \"--CODEGEN--\":2556:2567   */\n      swap7\n      pop\n        /* \"--CODEGEN--\":2580:2583   */\n      dup7\n        /* \"--CODEGEN--\":2573:2583   */\n      swap5\n      pop\n        /* \"--CODEGEN--\":1942:2589   */\n      pop\n      pop\n      pop\n      pop\n      swap3\n      swap2\n      pop\n      pop\n      jump\n        /* \"--CODEGEN--\":2628:3218   */\n    tag_171:\n      0x0\n        /* \"--CODEGEN--\":2763:2817   */\n      tag_172\n        /* \"--CODEGEN--\":2811:2816   */\n      dup3\n        /* \"--CODEGEN--\":2763:2817   */\n      jump(tag_173)\n    tag_172:\n        /* \"--CODEGEN--\":2835:2841   */\n      dup1\n        /* \"--CODEGEN--\":2830:2833   */\n      dup5\n        /* \"--CODEGEN--\":2823:2842   */\n      mstore\n        /* \"--CODEGEN--\":2859:2863   */\n      0x20\n        /* \"--CODEGEN--\":2854:2857   */\n      dup5\n        /* \"--CODEGEN--\":2850:2864   */\n      add\n        /* \"--CODEGEN--\":2843:2864   */\n      swap4\n      pop\n        /* \"--CODEGEN--\":2904:2960   */\n      tag_174\n        /* \"--CODEGEN--\":2954:2959   */\n      dup4\n        /* \"--CODEGEN--\":2904:2960   */\n      jump(tag_175)\n    tag_174:\n        /* \"--CODEGEN--\":2981:2982   */\n      0x0\n        /* \"--CODEGEN--\":2966:3196   */\n    tag_176:\n        /* \"--CODEGEN--\":2991:2997   */\n      dup3\n        /* \"--CODEGEN--\":2988:2989   */\n      dup2\n        /* \"--CODEGEN--\":2985:2998   */\n      lt\n        /* \"--CODEGEN--\":2966:3196   */\n      iszero\n      tag_177\n      jumpi\n        /* \"--CODEGEN--\":3031:3084   */\n      tag_179\n        /* \"--CODEGEN--\":3080:3083   */\n      dup7\n        /* \"--CODEGEN--\":3071:3077   */\n      dup4\n        /* \"--CODEGEN--\":3065:3078   */\n      mload\n        /* \"--CODEGEN--\":3031:3084   */\n      jump(tag_180)\n    tag_179:\n        /* \"--CODEGEN--\":3101:3161   */\n      tag_181\n        /* \"--CODEGEN--\":3154:3160   */\n      dup3\n        /* \"--CODEGEN--\":3101:3161   */\n      jump(tag_182)\n    tag_181:\n        /* \"--CODEGEN--\":3091:3161   */\n      swap2\n      pop\n        /* \"--CODEGEN--\":3184:3188   */\n      0x20\n        /* \"--CODEGEN--\":3179:3182   */\n      dup7\n        /* \"--CODEGEN--\":3175:3189   */\n      add\n        /* \"--CODEGEN--\":3168:3189   */\n      swap6\n      pop\n        /* \"--CODEGEN--\":3013:3014   */\n      0x1\n        /* \"--CODEGEN--\":3010:3011   */\n      dup2\n        /* \"--CODEGEN--\":3006:3015   */\n      add\n        /* \"--CODEGEN--\":3001:3015   */\n      swap1\n      pop\n        /* \"--CODEGEN--\":2966:3196   */\n      jump(tag_176)\n    tag_177:\n        /* \"--CODEGEN--\":2970:2984   */\n      pop\n        /* \"--CODEGEN--\":3209:3212   */\n      dup5\n        /* \"--CODEGEN--\":3202:3212   */\n      swap3\n      pop\n        /* \"--CODEGEN--\":2742:3218   */\n      pop\n      pop\n      swap3\n      swap2\n      pop\n      pop\n      jump\n        /* \"--CODEGEN--\":3226:3518   */\n    tag_167:\n      0x0\n        /* \"--CODEGEN--\":3324:3359   */\n      tag_184\n        /* \"--CODEGEN--\":3353:3358   */\n      dup3\n        /* \"--CODEGEN--\":3324:3359   */\n      jump(tag_185)\n    tag_184:\n        /* \"--CODEGEN--\":3376:3382   */\n      dup1\n        /* \"--CODEGEN--\":3371:3374   */\n      dup5\n        /* \"--CODEGEN--\":3364:3383   */\n      mstore\n        /* \"--CODEGEN--\":3388:3451   */\n      tag_186\n        /* \"--CODEGEN--\":3444:3450   */\n      dup2\n        /* \"--CODEGEN--\":3437:3441   */\n      0x20\n        /* \"--CODEGEN--\":3432:3435   */\n      dup7\n        /* \"--CODEGEN--\":3428:3442   */\n      add\n        /* \"--CODEGEN--\":3421:3425   */\n      0x20\n        /* \"--CODEGEN--\":3414:3419   */\n      dup7\n        /* \"--CODEGEN--\":3410:3426   */\n      add\n        /* \"--CODEGEN--\":3388:3451   */\n      jump(tag_187)\n    tag_186:\n        /* \"--CODEGEN--\":3483:3512   */\n      tag_188\n        /* \"--CODEGEN--\":3505:3511   */\n      dup2\n        /* \"--CODEGEN--\":3483:3512   */\n      jump(tag_189)\n    tag_188:\n        /* \"--CODEGEN--\":3476:3480   */\n      0x20\n        /* \"--CODEGEN--\":3471:3474   */\n      dup6\n        /* \"--CODEGEN--\":3467:3481   */\n      add\n        /* \"--CODEGEN--\":3463:3513   */\n      add\n        /* \"--CODEGEN--\":3456:3513   */\n      swap2\n      pop\n        /* \"--CODEGEN--\":3304:3518   */\n      pop\n      swap3\n      swap2\n      pop\n      pop\n      jump\n        /* \"--CODEGEN--\":3525:3635   */\n    tag_180:\n        /* \"--CODEGEN--\":3598:3629   */\n      tag_191\n        /* \"--CODEGEN--\":3623:3628   */\n      dup2\n        /* \"--CODEGEN--\":3598:3629   */\n      jump(tag_192)\n    tag_191:\n        /* \"--CODEGEN--\":3593:3596   */\n      dup3\n        /* \"--CODEGEN--\":3586:3630   */\n      mstore\n        /* \"--CODEGEN--\":3580:3635   */\n      pop\n      pop\n      jump\n        /* \"--CODEGEN--\":3642:4007   */\n    tag_48:\n      0x0\n        /* \"--CODEGEN--\":3812:3814   */\n      0x20\n        /* \"--CODEGEN--\":3801:3810   */\n      dup3\n        /* \"--CODEGEN--\":3797:3815   */\n      add\n        /* \"--CODEGEN--\":3789:3815   */\n      swap1\n      pop\n        /* \"--CODEGEN--\":3862:3871   */\n      dup2\n        /* \"--CODEGEN--\":3856:3860   */\n      dup2\n        /* \"--CODEGEN--\":3852:3872   */\n      sub\n        /* \"--CODEGEN--\":3848:3849   */\n      0x0\n        /* \"--CODEGEN--\":3837:3846   */\n      dup4\n        /* \"--CODEGEN--\":3833:3850   */\n      add\n        /* \"--CODEGEN--\":3826:3873   */\n      mstore\n        /* \"--CODEGEN--\":3887:3997   */\n      tag_194\n        /* \"--CODEGEN--\":3992:3996   */\n      dup2\n        /* \"--CODEGEN--\":3983:3989   */\n      dup5\n        /* \"--CODEGEN--\":3887:3997   */\n      jump(tag_158)\n    tag_194:\n        /* \"--CODEGEN--\":3879:3997   */\n      swap1\n      pop\n        /* \"--CODEGEN--\":3783:4007   */\n      swap3\n      swap2\n      pop\n      pop\n      jump\n        /* \"--CODEGEN--\":4014:4207   */\n    tag_19:\n      0x0\n        /* \"--CODEGEN--\":4122:4124   */\n      0x20\n        /* \"--CODEGEN--\":4111:4120   */\n      dup3\n        /* \"--CODEGEN--\":4107:4125   */\n      add\n        /* \"--CODEGEN--\":4099:4125   */\n      swap1\n      pop\n        /* \"--CODEGEN--\":4136:4197   */\n      tag_196\n        /* \"--CODEGEN--\":4194:4195   */\n      0x0\n        /* \"--CODEGEN--\":4183:4192   */\n      dup4\n        /* \"--CODEGEN--\":4179:4196   */\n      add\n        /* \"--CODEGEN--\":4170:4176   */\n      dup5\n        /* \"--CODEGEN--\":4136:4197   */\n      jump(tag_180)\n    tag_196:\n        /* \"--CODEGEN--\":4093:4207   */\n      swap3\n      swap2\n      pop\n      pop\n      jump\n        /* \"--CODEGEN--\":4214:4656   */\n    tag_35:\n      0x0\n        /* \"--CODEGEN--\":4400:4402   */\n      0x40\n        /* \"--CODEGEN--\":4389:4398   */\n      dup3\n        /* \"--CODEGEN--\":4385:4403   */\n      add\n        /* \"--CODEGEN--\":4377:4403   */\n      swap1\n      pop\n        /* \"--CODEGEN--\":4414:4475   */\n      tag_198\n        /* \"--CODEGEN--\":4472:4473   */\n      0x0\n        /* \"--CODEGEN--\":4461:4470   */\n      dup4\n        /* \"--CODEGEN--\":4457:4474   */\n      add\n        /* \"--CODEGEN--\":4448:4454   */\n      dup6\n        /* \"--CODEGEN--\":4414:4475   */\n      jump(tag_180)\n    tag_198:\n        /* \"--CODEGEN--\":4523:4532   */\n      dup2\n        /* \"--CODEGEN--\":4517:4521   */\n      dup2\n        /* \"--CODEGEN--\":4513:4533   */\n      sub\n        /* \"--CODEGEN--\":4508:4510   */\n      0x20\n        /* \"--CODEGEN--\":4497:4506   */\n      dup4\n        /* \"--CODEGEN--\":4493:4511   */\n      add\n        /* \"--CODEGEN--\":4486:4534   */\n      mstore\n        /* \"--CODEGEN--\":4548:4646   */\n      tag_199\n        /* \"--CODEGEN--\":4641:4645   */\n      dup2\n        /* \"--CODEGEN--\":4632:4638   */\n      dup5\n        /* \"--CODEGEN--\":4548:4646   */\n      jump(tag_171)\n    tag_199:\n        /* \"--CODEGEN--\":4540:4646   */\n      swap1\n      pop\n        /* \"--CODEGEN--\":4371:4656   */\n      swap4\n      swap3\n      pop\n      pop\n      pop\n      jump\n        /* \"--CODEGEN--\":4663:4919   */\n    tag_137:\n      0x0\n        /* \"--CODEGEN--\":4725:4727   */\n      0x40\n        /* \"--CODEGEN--\":4719:4728   */\n      mload\n        /* \"--CODEGEN--\":4709:4728   */\n      swap1\n      pop\n        /* \"--CODEGEN--\":4763:4767   */\n      dup2\n        /* \"--CODEGEN--\":4755:4761   */\n      dup2\n        /* \"--CODEGEN--\":4751:4768   */\n      add\n        /* \"--CODEGEN--\":4862:4868   */\n      dup2\n        /* \"--CODEGEN--\":4850:4860   */\n      dup2\n        /* \"--CODEGEN--\":4847:4869   */\n      lt\n        /* \"--CODEGEN--\":4826:4844   */\n      0xffffffffffffffff\n        /* \"--CODEGEN--\":4814:4824   */\n      dup3\n        /* \"--CODEGEN--\":4811:4845   */\n      gt\n        /* \"--CODEGEN--\":4808:4870   */\n      or\n        /* \"--CODEGEN--\":4805:4807   */\n      iszero\n      tag_201\n      jumpi\n        /* \"--CODEGEN--\":4883:4884   */\n      0x0\n        /* \"--CODEGEN--\":4880:4881   */\n      dup1\n        /* \"--CODEGEN--\":4873:4885   */\n      revert\n        /* \"--CODEGEN--\":4805:4807   */\n    tag_201:\n        /* \"--CODEGEN--\":4903:4913   */\n      dup1\n        /* \"--CODEGEN--\":4899:4901   */\n      0x40\n        /* \"--CODEGEN--\":4892:4914   */\n      mstore\n        /* \"--CODEGEN--\":4703:4919   */\n      pop\n      swap2\n      swap1\n      pop\n      jump\n        /* \"--CODEGEN--\":4926:5185   */\n    tag_136:\n      0x0\n        /* \"--CODEGEN--\":5070:5088   */\n      0xffffffffffffffff\n        /* \"--CODEGEN--\":5062:5068   */\n      dup3\n        /* \"--CODEGEN--\":5059:5089   */\n      gt\n        /* \"--CODEGEN--\":5056:5058   */\n      iszero\n      tag_203\n      jumpi\n        /* \"--CODEGEN--\":5102:5103   */\n      0x0\n        /* \"--CODEGEN--\":5099:5100   */\n      dup1\n        /* \"--CODEGEN--\":5092:5104   */\n      revert\n        /* \"--CODEGEN--\":5056:5058   */\n    tag_203:\n        /* \"--CODEGEN--\":5146:5150   */\n      0x1f\n        /* \"--CODEGEN--\":5142:5151   */\n      not\n        /* \"--CODEGEN--\":5135:5139   */\n      0x1f\n        /* \"--CODEGEN--\":5127:5133   */\n      dup4\n        /* \"--CODEGEN--\":5123:5140   */\n      add\n        /* \"--CODEGEN--\":5119:5152   */\n      and\n        /* \"--CODEGEN--\":5111:5152   */\n      swap1\n      pop\n        /* \"--CODEGEN--\":5175:5179   */\n      0x20\n        /* \"--CODEGEN--\":5169:5173   */\n      dup2\n        /* \"--CODEGEN--\":5165:5180   */\n      add\n        /* \"--CODEGEN--\":5157:5180   */\n      swap1\n      pop\n        /* \"--CODEGEN--\":4993:5185   */\n      swap2\n      swap1\n      pop\n      jump\n        /* \"--CODEGEN--\":5194:5321   */\n    tag_162:\n      0x0\n        /* \"--CODEGEN--\":5309:5313   */\n      0x20\n        /* \"--CODEGEN--\":5301:5307   */\n      dup3\n        /* \"--CODEGEN--\":5297:5314   */\n      add\n        /* \"--CODEGEN--\":5286:5314   */\n      swap1\n      pop\n        /* \"--CODEGEN--\":5278:5321   */\n      swap2\n      swap1\n      pop\n      jump\n        /* \"--CODEGEN--\":5332:5453   */\n    tag_175:\n      0x0\n        /* \"--CODEGEN--\":5441:5445   */\n      0x20\n        /* \"--CODEGEN--\":5433:5439   */\n      dup3\n        /* \"--CODEGEN--\":5429:5446   */\n      add\n        /* \"--CODEGEN--\":5418:5446   */\n      swap1\n      pop\n        /* \"--CODEGEN--\":5410:5453   */\n      swap2\n      swap1\n      pop\n      jump\n        /* \"--CODEGEN--\":5462:5575   */\n    tag_160:\n      0x0\n        /* \"--CODEGEN--\":5564:5569   */\n      dup2\n        /* \"--CODEGEN--\":5558:5570   */\n      mload\n        /* \"--CODEGEN--\":5548:5570   */\n      swap1\n      pop\n        /* \"--CODEGEN--\":5542:5575   */\n      swap2\n      swap1\n      pop\n      jump\n        /* \"--CODEGEN--\":5582:5689   */\n    tag_173:\n      0x0\n        /* \"--CODEGEN--\":5678:5683   */\n      dup2\n        /* \"--CODEGEN--\":5672:5684   */\n      mload\n        /* \"--CODEGEN--\":5662:5684   */\n      swap1\n      pop\n        /* \"--CODEGEN--\":5656:5689   */\n      swap2\n      swap1\n      pop\n      jump\n        /* \"--CODEGEN--\":5696:5784   */\n    tag_185:\n      0x0\n        /* \"--CODEGEN--\":5773:5778   */\n      dup2\n        /* \"--CODEGEN--\":5767:5779   */\n      mload\n        /* \"--CODEGEN--\":5757:5779   */\n      swap1\n      pop\n        /* \"--CODEGEN--\":5751:5784   */\n      swap2\n      swap1\n      pop\n      jump\n        /* \"--CODEGEN--\":5792:5920   */\n    tag_169:\n      0x0\n        /* \"--CODEGEN--\":5909:5913   */\n      0x20\n        /* \"--CODEGEN--\":5901:5907   */\n      dup3\n        /* \"--CODEGEN--\":5897:5914   */\n      add\n        /* \"--CODEGEN--\":5886:5914   */\n      swap1\n      pop\n        /* \"--CODEGEN--\":5879:5920   */\n      swap2\n      swap1\n      pop\n      jump\n        /* \"--CODEGEN--\":5929:6051   */\n    tag_182:\n      0x0\n        /* \"--CODEGEN--\":6040:6044   */\n      0x20\n        /* \"--CODEGEN--\":6032:6038   */\n      dup3\n        /* \"--CODEGEN--\":6028:6045   */\n      add\n        /* \"--CODEGEN--\":6017:6045   */\n      swap1\n      pop\n        /* \"--CODEGEN--\":6010:6051   */\n      swap2\n      swap1\n      pop\n      jump\n        /* \"--CODEGEN--\":6059:6138   */\n    tag_192:\n      0x0\n        /* \"--CODEGEN--\":6128:6133   */\n      dup2\n        /* \"--CODEGEN--\":6117:6133   */\n      swap1\n      pop\n        /* \"--CODEGEN--\":6111:6138   */\n      swap2\n      swap1\n      pop\n      jump\n        /* \"--CODEGEN--\":6145:6273   */\n    tag_130:\n      0x0\n        /* \"--CODEGEN--\":6225:6267   */\n      0xffffffffffffffffffffffffffffffffffffffff\n        /* \"--CODEGEN--\":6218:6223   */\n      dup3\n        /* \"--CODEGEN--\":6214:6268   */\n      and\n        /* \"--CODEGEN--\":6203:6268   */\n      swap1\n      pop\n        /* \"--CODEGEN--\":6197:6273   */\n      swap2\n      swap1\n      pop\n      jump\n        /* \"--CODEGEN--\":6280:6359   */\n    tag_144:\n      0x0\n        /* \"--CODEGEN--\":6349:6354   */\n      dup2\n        /* \"--CODEGEN--\":6338:6354   */\n      swap1\n      pop\n        /* \"--CODEGEN--\":6332:6359   */\n      swap2\n      swap1\n      pop\n      jump\n        /* \"--CODEGEN--\":6367:6512   */\n    tag_140:\n        /* \"--CODEGEN--\":6448:6454   */\n      dup3\n        /* \"--CODEGEN--\":6443:6446   */\n      dup2\n        /* \"--CODEGEN--\":6438:6441   */\n      dup4\n        /* \"--CODEGEN--\":6425:6455   */\n      calldatacopy\n        /* \"--CODEGEN--\":6504:6505   */\n      0x0\n        /* \"--CODEGEN--\":6495:6501   */\n      dup4\n        /* \"--CODEGEN--\":6490:6493   */\n      dup4\n        /* \"--CODEGEN--\":6486:6502   */\n      add\n        /* \"--CODEGEN--\":6479:6506   */\n      mstore\n        /* \"--CODEGEN--\":6418:6512   */\n      pop\n      pop\n      pop\n      jump\n        /* \"--CODEGEN--\":6521:6789   */\n    tag_187:\n        /* \"--CODEGEN--\":6586:6587   */\n      0x0\n        /* \"--CODEGEN--\":6593:6694   */\n    tag_216:\n        /* \"--CODEGEN--\":6607:6613   */\n      dup4\n        /* \"--CODEGEN--\":6604:6605   */\n      dup2\n        /* \"--CODEGEN--\":6601:6614   */\n      lt\n        /* \"--CODEGEN--\":6593:6694   */\n      iszero\n      tag_217\n      jumpi\n        /* \"--CODEGEN--\":6683:6684   */\n      dup1\n        /* \"--CODEGEN--\":6678:6681   */\n      dup3\n        /* \"--CODEGEN--\":6674:6685   */\n      add\n        /* \"--CODEGEN--\":6668:6686   */\n      mload\n        /* \"--CODEGEN--\":6664:6665   */\n      dup2\n        /* \"--CODEGEN--\":6659:6662   */\n      dup5\n        /* \"--CODEGEN--\":6655:6666   */\n      add\n        /* \"--CODEGEN--\":6648:6687   */\n      mstore\n        /* \"--CODEGEN--\":6629:6631   */\n      0x20\n        /* \"--CODEGEN--\":6626:6627   */\n      dup2\n        /* \"--CODEGEN--\":6622:6632   */\n      add\n        /* \"--CODEGEN--\":6617:6632   */\n      swap1\n      pop\n        /* \"--CODEGEN--\":6593:6694   */\n      jump(tag_216)\n    tag_217:\n        /* \"--CODEGEN--\":6709:6715   */\n      dup4\n        /* \"--CODEGEN--\":6706:6707   */\n      dup2\n        /* \"--CODEGEN--\":6703:6716   */\n      gt\n        /* \"--CODEGEN--\":6700:6702   */\n      iszero\n      tag_219\n      jumpi\n        /* \"--CODEGEN--\":6774:6775   */\n      0x0\n        /* \"--CODEGEN--\":6765:6771   */\n      dup5\n        /* \"--CODEGEN--\":6760:6763   */\n      dup5\n        /* \"--CODEGEN--\":6756:6772   */\n      add\n        /* \"--CODEGEN--\":6749:6776   */\n      mstore\n        /* \"--CODEGEN--\":6700:6702   */\n    tag_219:\n        /* \"--CODEGEN--\":6570:6789   */\n      pop\n      pop\n      pop\n      pop\n      jump\n        /* \"--CODEGEN--\":6797:6894   */\n    tag_189:\n      0x0\n        /* \"--CODEGEN--\":6885:6887   */\n      0x1f\n        /* \"--CODEGEN--\":6881:6888   */\n      not\n        /* \"--CODEGEN--\":6876:6878   */\n      0x1f\n        /* \"--CODEGEN--\":6869:6874   */\n      dup4\n        /* \"--CODEGEN--\":6865:6879   */\n      add\n        /* \"--CODEGEN--\":6861:6889   */\n      and\n        /* \"--CODEGEN--\":6851:6889   */\n      swap1\n      pop\n        /* \"--CODEGEN--\":6845:6894   */\n      swap2\n      swap1\n      pop\n      jump\n\n    auxdata: 0xa265627a7a72305820663369271cd00aa254d11c7ae719a98b900039b2284786a13d95e46e5519b76a6c6578706572696d656e74616cf50037\n}\n",
				"bytecode": {
					"linkReferences": {},
					"object": "60806040523480156200001157600080fd5b506040516200142c3803806200142c8339810180604052620000379190810190620002f4565b80600290805190602001906200004f9291906200006e565b5082600381905550826004819055508160058190555050505062000427565b828054828255906000526020600020908101928215620000c2579160200282015b82811115620000c1578251829080519060200190620000b0929190620000d5565b50916020019190600101906200008f565b5b509050620000d191906200015c565b5090565b828054600181600116156101000203166002900490600052602060002090601f016020900481019282601f106200011857805160ff191683800117855562000149565b8280016001018555821562000149579182015b82811115620001485782518255916020019190600101906200012b565b5b5090506200015891906200018d565b5090565b6200018a91905b808211156200018657600081816200017c9190620001b5565b5060010162000163565b5090565b90565b620001b291905b80821115620001ae57600081600090555060010162000194565b5090565b90565b50805460018160011615610100020316600290046000825580601f10620001dd5750620001fe565b601f016020900490600052602060002090810190620001fd91906200018d565b5b50565b600082601f83011215156200021557600080fd5b81516200022c620002268262000391565b62000363565b9150818183526020840193506020810190508360005b838110156200027657815186016200025b888262000280565b84526020840193506020830192505060018101905062000242565b5050505092915050565b600082601f83011215156200029457600080fd5b8151620002ab620002a582620003ba565b62000363565b91508082526020830160208301858383011115620002c857600080fd5b620002d5838284620003f1565b50505092915050565b6000620002ec8251620003e7565b905092915050565b6000806000606084860312156200030a57600080fd5b60006200031a86828701620002de565b93505060206200032d86828701620002de565b925050604084015167ffffffffffffffff8111156200034b57600080fd5b620003598682870162000201565b9150509250925092565b6000604051905081810181811067ffffffffffffffff821117156200038757600080fd5b8060405250919050565b600067ffffffffffffffff821115620003a957600080fd5b602082029050602081019050919050565b600067ffffffffffffffff821115620003d257600080fd5b601f19601f8301169050602081019050919050565b6000819050919050565b60005b8381101562000411578082015181840152602081019050620003f4565b8381111562000421576000848401525b50505050565b610ff580620004376000396000f3006080604052600436106100af576000357c0100000000000000000000000000000000000000000000000000000000900463ffffffff1680632f506b6f146100b45780634a3bf377146100f1578063518ab2a81461012e5780635938750d146101595780637e1c0c09146101975780637ff9b596146101c257806381c40715146101ed578063a03fa7e314610218578063a6f2ae3a14610241578063d1d1a39d1461025f578063e4494a0f14610288575b600080fd5b3480156100c057600080fd5b506100db60048036036100d69190810190610c76565b6102b3565b6040516100e89190610e3b565b60405180910390f35b3480156100fd57600080fd5b5061011860048036036101139190810190610c76565b6104d1565b6040516101259190610e3b565b60405180910390f35b34801561013a57600080fd5b50610143610546565b6040516101509190610e3b565b60405180910390f35b34801561016557600080fd5b50610180600480360361017b9190810190610c4d565b610554565b60405161018e929190610e56565b60405180910390f35b3480156101a357600080fd5b506101ac610636565b6040516101b99190610e3b565b60405180910390f35b3480156101ce57600080fd5b506101d761063c565b6040516101e49190610e3b565b60405180910390f35b3480156101f957600080fd5b50610202610642565b60405161020f9190610e19565b60405180910390f35b34801561022457600080fd5b5061023f600480360361023a9190810190610c4d565b61072b565b005b61024961078c565b6040516102569190610e3b565b60405180910390f35b34801561026b57600080fd5b5061028660048036036102819190810190610cb7565b610896565b005b34801561029457600080fd5b5061029d610b80565b6040516102aa9190610e3b565b60405180910390f35b600080600090505b6002805490508110156104a757826040516020018082805190602001908083835b60208310151561030157805182526020820191506020810190506020830392506102dc565b6001836020036101000a0380198251168184511680821785525050505050509050019150506040516020818303038152906040526040518082805190602001908083835b60208310151561036a5780518252602082019150602081019050602083039250610345565b6001836020036101000a0380198251168184511680821785525050505050509050019150506040518091039020600019166002828154811015156103aa57fe5b9060005260206000200160405160200180828054600181600116156101000203166002900480156104125780601f106103f0576101008083540402835291820191610412565b820191906000526020600020905b8154815290600101906020018083116103fe575b50509150506040516020818303038152906040526040518082805190602001908083835b60208310151561045b5780518252602082019150602081019050602083039250610436565b6001836020036101000a038019825116818451168082178552505050505050905001915050604051809103902060001916141561049a578091506104cb565b80806001019150506102bb565b7fffffffffffffffffffffffffffffffffffffffffffffffffffffffffffffffff91505b50919050565b60006001826040518082805190602001908083835b60208310151561050b57805182526020820191506020810190506020830392506104e6565b6001836020036101000a0380198251168184511680821785525050505050509050019150509081526020016040518091039020549050919050565b600060045460035403905090565b600060606000808473ffffffffffffffffffffffffffffffffffffffff1673ffffffffffffffffffffffffffffffffffffffff168152602001908152602001600020600101546000808573ffffffffffffffffffffffffffffffffffffffff1673ffffffffffffffffffffffffffffffffffffffff1681526020019081526020016000206002018080548060200260200160405190810160405280929190818152602001828054801561062657602002820191906000526020600020905b815481526020019060010190808311610612575b5050505050905091509150915091565b60035481565b60055481565b60606002805480602002602001604051908101604052809291908181526020016000905b82821015610722578382906000526020600020018054600181600116156101000203166002900480601f01602080910402602001604051908101604052809291908181526020018280546001816001161561010002031660029004801561070e5780601f106106e35761010080835404028352916020019161070e565b820191906000526020600020905b8154815290600101906020018083116106f157829003601f168201915b505050505081526020019060010190610666565b50505050905090565b8073ffffffffffffffffffffffffffffffffffffffff166108fc3073ffffffffffffffffffffffffffffffffffffffff16319081150290604051600060405180830381858888f19350505050158015610788573d6000803e3d6000fd5b5050565b6000806005543481151561079c57fe5b04905060045481111515156107b057600080fd5b336000803373ffffffffffffffffffffffffffffffffffffffff1673ffffffffffffffffffffffffffffffffffffffff16815260200190815260200160002060000160006101000a81548173ffffffffffffffffffffffffffffffffffffffff021916908373ffffffffffffffffffffffffffffffffffffffff160217905550806000803373ffffffffffffffffffffffffffffffffffffffff1673ffffffffffffffffffffffffffffffffffffffff16815260200190815260200160002060010160008282540192505081905550806004600082825403925050819055508091505090565b60008060006108a4856102b3565b92507fffffffffffffffffffffffffffffffffffffffffffffffffffffffffffffffff83141515156108d557600080fd5b60008060003373ffffffffffffffffffffffffffffffffffffffff1673ffffffffffffffffffffffffffffffffffffffff1681526020019081526020016000206002018054905014156109ae57600091505b6002805490508210156109ad576000803373ffffffffffffffffffffffffffffffffffffffff1673ffffffffffffffffffffffffffffffffffffffff168152602001908152602001600020600201600090806001815401808255809150509060018203906000526020600020016000909192909190915055508180600101925050610927565b5b610a466000803373ffffffffffffffffffffffffffffffffffffffff1673ffffffffffffffffffffffffffffffffffffffff168152602001908152602001600020600201805480602002602001604051908101604052809291908181526020018280548015610a3c57602002820191906000526020600020905b815481526020019060010190808311610a28575b5050505050610b86565b6000803373ffffffffffffffffffffffffffffffffffffffff1673ffffffffffffffffffffffffffffffffffffffff16815260200190815260200160002060010154039050838110151515610a9a57600080fd5b836001866040518082805190602001908083835b602083101515610ad35780518252602082019150602081019050602083039250610aae565b6001836020036101000a038019825116818451168082178552505050505050905001915050908152602001604051809103902060008282540192505081905550836000803373ffffffffffffffffffffffffffffffffffffffff1673ffffffffffffffffffffffffffffffffffffffff16815260200190815260200160002060020184815481101515610b6257fe5b90600052602060002001600082825401925050819055505050505050565b60045481565b6000806000809150600090505b8351811015610bc5578381815181101515610baa57fe5b90602001906020020151820191508080600101915050610b93565b8192505050919050565b6000610bdb8235610f3e565b905092915050565b600082601f8301121515610bf657600080fd5b8135610c09610c0482610eb3565b610e86565b91508082526020830160208301858383011115610c2557600080fd5b610c30838284610f68565b50505092915050565b6000610c458235610f5e565b905092915050565b600060208284031215610c5f57600080fd5b6000610c6d84828501610bcf565b91505092915050565b600060208284031215610c8857600080fd5b600082013567ffffffffffffffff811115610ca257600080fd5b610cae84828501610be3565b91505092915050565b60008060408385031215610cca57600080fd5b600083013567ffffffffffffffff811115610ce457600080fd5b610cf085828601610be3565b9250506020610d0185828601610c39565b9150509250929050565b6000610d1682610ef9565b80845260208401935083602082028501610d2f85610edf565b60005b84811015610d68578383038852610d4a838351610dd4565b9250610d5582610f1a565b9150602088019750600181019050610d32565b508196508694505050505092915050565b6000610d8482610f04565b808452602084019350610d9683610eec565b60005b82811015610dc857610dac868351610e0a565b610db582610f27565b9150602086019550600181019050610d99565b50849250505092915050565b6000610ddf82610f0f565b808452610df3816020860160208601610f77565b610dfc81610faa565b602085010191505092915050565b610e1381610f34565b82525050565b60006020820190508181036000830152610e338184610d0b565b905092915050565b6000602082019050610e506000830184610e0a565b92915050565b6000604082019050610e6b6000830185610e0a565b8181036020830152610e7d8184610d79565b90509392505050565b6000604051905081810181811067ffffffffffffffff82111715610ea957600080fd5b8060405250919050565b600067ffffffffffffffff821115610eca57600080fd5b601f19601f8301169050602081019050919050565b6000602082019050919050565b6000602082019050919050565b600081519050919050565b600081519050919050565b600081519050919050565b6000602082019050919050565b6000602082019050919050565b6000819050919050565b600073ffffffffffffffffffffffffffffffffffffffff82169050919050565b6000819050919050565b82818337600083830152505050565b60005b83811015610f95578082015181840152602081019050610f7a565b83811115610fa4576000848401525b50505050565b6000601f19601f83011690509190505600a265627a7a72305820663369271cd00aa254d11c7ae719a98b900039b2284786a13d95e46e5519b76a6c6578706572696d656e74616cf50037",
					"opcodes": "PUSH1 0x80 PUSH1 0x40 MSTORE CALLVALUE DUP1 ISZERO PUSH3 0x11 JUMPI PUSH1 0x0 DUP1 REVERT JUMPDEST POP PUSH1 0x40 MLOAD PUSH3 0x142C CODESIZE SUB DUP1 PUSH3 0x142C DUP4 CODECOPY DUP2 ADD DUP1 PUSH1 0x40 MSTORE PUSH3 0x37 SWAP2 SWAP1 DUP2 ADD SWAP1 PUSH3 0x2F4 JUMP JUMPDEST DUP1 PUSH1 0x2 SWAP1 DUP1 MLOAD SWAP1 PUSH1 0x20 ADD SWAP1 PUSH3 0x4F SWAP3 SWAP2 SWAP1 PUSH3 0x6E JUMP JUMPDEST POP DUP3 PUSH1 0x3 DUP2 SWAP1 SSTORE POP DUP3 PUSH1 0x4 DUP2 SWAP1 SSTORE POP DUP2 PUSH1 0x5 DUP2 SWAP1 SSTORE POP POP POP POP PUSH3 0x427 JUMP JUMPDEST DUP3 DUP1 SLOAD DUP3 DUP3 SSTORE SWAP1 PUSH1 0x0 MSTORE PUSH1 0x20 PUSH1 0x0 KECCAK256 SWAP1 DUP2 ADD SWAP3 DUP3 ISZERO PUSH3 0xC2 JUMPI SWAP2 PUSH1 0x20 MUL DUP3 ADD JUMPDEST DUP3 DUP2 GT ISZERO PUSH3 0xC1 JUMPI DUP3 MLOAD DUP3 SWAP1 DUP1 MLOAD SWAP1 PUSH1 0x20 ADD SWAP1 PUSH3 0xB0 SWAP3 SWAP2 SWAP1 PUSH3 0xD5 JUMP JUMPDEST POP SWAP2 PUSH1 0x20 ADD SWAP2 SWAP1 PUSH1 0x1 ADD SWAP1 PUSH3 0x8F JUMP JUMPDEST JUMPDEST POP SWAP1 POP PUSH3 0xD1 SWAP2 SWAP1 PUSH3 0x15C JUMP JUMPDEST POP SWAP1 JUMP JUMPDEST DUP3 DUP1 SLOAD PUSH1 0x1 DUP2 PUSH1 0x1 AND ISZERO PUSH2 0x100 MUL SUB AND PUSH1 0x2 SWAP1 DIV SWAP1 PUSH1 0x0 MSTORE PUSH1 0x20 PUSH1 0x0 KECCAK256 SWAP1 PUSH1 0x1F ADD PUSH1 0x20 SWAP1 DIV DUP2 ADD SWAP3 DUP3 PUSH1 0x1F LT PUSH3 0x118 JUMPI DUP1 MLOAD PUSH1 0xFF NOT AND DUP4 DUP1 ADD OR DUP6 SSTORE PUSH3 0x149 JUMP JUMPDEST DUP3 DUP1 ADD PUSH1 0x1 ADD DUP6 SSTORE DUP3 ISZERO PUSH3 0x149 JUMPI SWAP2 DUP3 ADD JUMPDEST DUP3 DUP2 GT ISZERO PUSH3 0x148 JUMPI DUP3 MLOAD DUP3 SSTORE SWAP2 PUSH1 0x20 ADD SWAP2 SWAP1 PUSH1 0x1 ADD SWAP1 PUSH3 0x12B JUMP JUMPDEST JUMPDEST POP SWAP1 POP PUSH3 0x158 SWAP2 SWAP1 PUSH3 0x18D JUMP JUMPDEST POP SWAP1 JUMP JUMPDEST PUSH3 0x18A SWAP2 SWAP1 JUMPDEST DUP1 DUP3 GT ISZERO PUSH3 0x186 JUMPI PUSH1 0x0 DUP2 DUP2 PUSH3 0x17C SWAP2 SWAP1 PUSH3 0x1B5 JUMP JUMPDEST POP PUSH1 0x1 ADD PUSH3 0x163 JUMP JUMPDEST POP SWAP1 JUMP JUMPDEST SWAP1 JUMP JUMPDEST PUSH3 0x1B2 SWAP2 SWAP1 JUMPDEST DUP1 DUP3 GT ISZERO PUSH3 0x1AE JUMPI PUSH1 0x0 DUP2 PUSH1 0x0 SWAP1 SSTORE POP PUSH1 0x1 ADD PUSH3 0x194 JUMP JUMPDEST POP SWAP1 JUMP JUMPDEST SWAP1 JUMP JUMPDEST POP DUP1 SLOAD PUSH1 0x1 DUP2 PUSH1 0x1 AND ISZERO PUSH2 0x100 MUL SUB AND PUSH1 0x2 SWAP1 DIV PUSH1 0x0 DUP3 SSTORE DUP1 PUSH1 0x1F LT PUSH3 0x1DD JUMPI POP PUSH3 0x1FE JUMP JUMPDEST PUSH1 0x1F ADD PUSH1 0x20 SWAP1 DIV SWAP1 PUSH1 0x0 MSTORE PUSH1 0x20 PUSH1 0x0 KECCAK256 SWAP1 DUP2 ADD SWAP1 PUSH3 0x1FD SWAP2 SWAP1 PUSH3 0x18D JUMP JUMPDEST JUMPDEST POP JUMP JUMPDEST PUSH1 0x0 DUP3 PUSH1 0x1F DUP4 ADD SLT ISZERO ISZERO PUSH3 0x215 JUMPI PUSH1 0x0 DUP1 REVERT JUMPDEST DUP2 MLOAD PUSH3 0x22C PUSH3 0x226 DUP3 PUSH3 0x391 JUMP JUMPDEST PUSH3 0x363 JUMP JUMPDEST SWAP2 POP DUP2 DUP2 DUP4 MSTORE PUSH1 0x20 DUP5 ADD SWAP4 POP PUSH1 0x20 DUP2 ADD SWAP1 POP DUP4 PUSH1 0x0 JUMPDEST DUP4 DUP2 LT ISZERO PUSH3 0x276 JUMPI DUP2 MLOAD DUP7 ADD PUSH3 0x25B DUP9 DUP3 PUSH3 0x280 JUMP JUMPDEST DUP5 MSTORE PUSH1 0x20 DUP5 ADD SWAP4 POP PUSH1 0x20 DUP4 ADD SWAP3 POP POP PUSH1 0x1 DUP2 ADD SWAP1 POP PUSH3 0x242 JUMP JUMPDEST POP POP POP POP SWAP3 SWAP2 POP POP JUMP JUMPDEST PUSH1 0x0 DUP3 PUSH1 0x1F DUP4 ADD SLT ISZERO ISZERO PUSH3 0x294 JUMPI PUSH1 0x0 DUP1 REVERT JUMPDEST DUP2 MLOAD PUSH3 0x2AB PUSH3 0x2A5 DUP3 PUSH3 0x3BA JUMP JUMPDEST PUSH3 0x363 JUMP JUMPDEST SWAP2 POP DUP1 DUP3 MSTORE PUSH1 0x20 DUP4 ADD PUSH1 0x20 DUP4 ADD DUP6 DUP4 DUP4 ADD GT ISZERO PUSH3 0x2C8 JUMPI PUSH1 0x0 DUP1 REVERT JUMPDEST PUSH3 0x2D5 DUP4 DUP3 DUP5 PUSH3 0x3F1 JUMP JUMPDEST POP POP POP SWAP3 SWAP2 POP POP JUMP JUMPDEST PUSH1 0x0 PUSH3 0x2EC DUP3 MLOAD PUSH3 0x3E7 JUMP JUMPDEST SWAP1 POP SWAP3 SWAP2 POP POP JUMP JUMPDEST PUSH1 0x0 DUP1 PUSH1 0x0 PUSH1 0x60 DUP5 DUP7 SUB SLT ISZERO PUSH3 0x30A JUMPI PUSH1 0x0 DUP1 REVERT JUMPDEST PUSH1 0x0 PUSH3 0x31A DUP7 DUP3 DUP8 ADD PUSH3 0x2DE JUMP JUMPDEST SWAP4 POP POP PUSH1 0x20 PUSH3 0x32D DUP7 DUP3 DUP8 ADD PUSH3 0x2DE JUMP JUMPDEST SWAP3 POP POP PUSH1 0x40 DUP5 ADD MLOAD PUSH8 0xFFFFFFFFFFFFFFFF DUP2 GT ISZERO PUSH3 0x34B JUMPI PUSH1 0x0 DUP1 REVERT JUMPDEST PUSH3 0x359 DUP7 DUP3 DUP8 ADD PUSH3 0x201 JUMP JUMPDEST SWAP2 POP POP SWAP3 POP SWAP3 POP SWAP3 JUMP JUMPDEST PUSH1 0x0 PUSH1 0x40 MLOAD SWAP1 POP DUP2 DUP2 ADD DUP2 DUP2 LT PUSH8 0xFFFFFFFFFFFFFFFF DUP3 GT OR ISZERO PUSH3 0x387 JUMPI PUSH1 0x0 DUP1 REVERT JUMPDEST DUP1 PUSH1 0x40 MSTORE POP SWAP2 SWAP1 POP JUMP JUMPDEST PUSH1 0x0 PUSH8 0xFFFFFFFFFFFFFFFF DUP3 GT ISZERO PUSH3 0x3A9 JUMPI PUSH1 0x0 DUP1 REVERT JUMPDEST PUSH1 0x20 DUP3 MUL SWAP1 POP PUSH1 0x20 DUP2 ADD SWAP1 POP SWAP2 SWAP1 POP JUMP JUMPDEST PUSH1 0x0 PUSH8 0xFFFFFFFFFFFFFFFF DUP3 GT ISZERO PUSH3 0x3D2 JUMPI PUSH1 0x0 DUP1 REVERT JUMPDEST PUSH1 0x1F NOT PUSH1 0x1F DUP4 ADD AND SWAP1 POP PUSH1 0x20 DUP2 ADD SWAP1 POP SWAP2 SWAP1 POP JUMP JUMPDEST PUSH1 0x0 DUP2 SWAP1 POP SWAP2 SWAP1 POP JUMP JUMPDEST PUSH1 0x0 JUMPDEST DUP4 DUP2 LT ISZERO PUSH3 0x411 JUMPI DUP1 DUP3 ADD MLOAD DUP2 DUP5 ADD MSTORE PUSH1 0x20 DUP2 ADD SWAP1 POP PUSH3 0x3F4 JUMP JUMPDEST DUP4 DUP2 GT ISZERO PUSH3 0x421 JUMPI PUSH1 0x0 DUP5 DUP5 ADD MSTORE JUMPDEST POP POP POP POP JUMP JUMPDEST PUSH2 0xFF5 DUP1 PUSH3 0x437 PUSH1 0x0 CODECOPY PUSH1 0x0 RETURN STOP PUSH1 0x80 PUSH1 0x40 MSTORE PUSH1 0x4 CALLDATASIZE LT PUSH2 0xAF JUMPI PUSH1 0x0 CALLDATALOAD PUSH29 0x100000000000000000000000000000000000000000000000000000000 SWAP1 DIV PUSH4 0xFFFFFFFF AND DUP1 PUSH4 0x2F506B6F EQ PUSH2 0xB4 JUMPI DUP1 PUSH4 0x4A3BF377 EQ PUSH2 0xF1 JUMPI DUP1 PUSH4 0x518AB2A8 EQ PUSH2 0x12E JUMPI DUP1 PUSH4 0x5938750D EQ PUSH2 0x159 JUMPI DUP1 PUSH4 0x7E1C0C09 EQ PUSH2 0x197 JUMPI DUP1 PUSH4 0x7FF9B596 EQ PUSH2 0x1C2 JUMPI DUP1 PUSH4 0x81C40715 EQ PUSH2 0x1ED JUMPI DUP1 PUSH4 0xA03FA7E3 EQ PUSH2 0x218 JUMPI DUP1 PUSH4 0xA6F2AE3A EQ PUSH2 0x241 JUMPI DUP1 PUSH4 0xD1D1A39D EQ PUSH2 0x25F JUMPI DUP1 PUSH4 0xE4494A0F EQ PUSH2 0x288 JUMPI JUMPDEST PUSH1 0x0 DUP1 REVERT JUMPDEST CALLVALUE DUP1 ISZERO PUSH2 0xC0 JUMPI PUSH1 0x0 DUP1 REVERT JUMPDEST POP PUSH2 0xDB PUSH1 0x4 DUP1 CALLDATASIZE SUB PUSH2 0xD6 SWAP2 SWAP1 DUP2 ADD SWAP1 PUSH2 0xC76 JUMP JUMPDEST PUSH2 0x2B3 JUMP JUMPDEST PUSH1 0x40 MLOAD PUSH2 0xE8 SWAP2 SWAP1 PUSH2 0xE3B JUMP JUMPDEST PUSH1 0x40 MLOAD DUP1 SWAP2 SUB SWAP1 RETURN JUMPDEST CALLVALUE DUP1 ISZERO PUSH2 0xFD JUMPI PUSH1 0x0 DUP1 REVERT JUMPDEST POP PUSH2 0x118 PUSH1 0x4 DUP1 CALLDATASIZE SUB PUSH2 0x113 SWAP2 SWAP1 DUP2 ADD SWAP1 PUSH2 0xC76 JUMP JUMPDEST PUSH2 0x4D1 JUMP JUMPDEST PUSH1 0x40 MLOAD PUSH2 0x125 SWAP2 SWAP1 PUSH2 0xE3B JUMP JUMPDEST PUSH1 0x40 MLOAD DUP1 SWAP2 SUB SWAP1 RETURN JUMPDEST CALLVALUE DUP1 ISZERO PUSH2 0x13A JUMPI PUSH1 0x0 DUP1 REVERT JUMPDEST POP PUSH2 0x143 PUSH2 0x546 JUMP JUMPDEST PUSH1 0x40 MLOAD PUSH2 0x150 SWAP2 SWAP1 PUSH2 0xE3B JUMP JUMPDEST PUSH1 0x40 MLOAD DUP1 SWAP2 SUB SWAP1 RETURN JUMPDEST CALLVALUE DUP1 ISZERO PUSH2 0x165 JUMPI PUSH1 0x0 DUP1 REVERT JUMPDEST POP PUSH2 0x180 PUSH1 0x4 DUP1 CALLDATASIZE SUB PUSH2 0x17B SWAP2 SWAP1 DUP2 ADD SWAP1 PUSH2 0xC4D JUMP JUMPDEST PUSH2 0x554 JUMP JUMPDEST PUSH1 0x40 MLOAD PUSH2 0x18E SWAP3 SWAP2 SWAP1 PUSH2 0xE56 JUMP JUMPDEST PUSH1 0x40 MLOAD DUP1 SWAP2 SUB SWAP1 RETURN JUMPDEST CALLVALUE DUP1 ISZERO PUSH2 0x1A3 JUMPI PUSH1 0x0 DUP1 REVERT JUMPDEST POP PUSH2 0x1AC PUSH2 0x636 JUMP JUMPDEST PUSH1 0x40 MLOAD PUSH2 0x1B9 SWAP2 SWAP1 PUSH2 0xE3B JUMP JUMPDEST PUSH1 0x40 MLOAD DUP1 SWAP2 SUB SWAP1 RETURN JUMPDEST CALLVALUE DUP1 ISZERO PUSH2 0x1CE JUMPI PUSH1 0x0 DUP1 REVERT JUMPDEST POP PUSH2 0x1D7 PUSH2 0x63C JUMP JUMPDEST PUSH1 0x40 MLOAD PUSH2 0x1E4 SWAP2 SWAP1 PUSH2 0xE3B JUMP JUMPDEST PUSH1 0x40 MLOAD DUP1 SWAP2 SUB SWAP1 RETURN JUMPDEST CALLVALUE DUP1 ISZERO PUSH2 0x1F9 JUMPI PUSH1 0x0 DUP1 REVERT JUMPDEST POP PUSH2 0x202 PUSH2 0x642 JUMP JUMPDEST PUSH1 0x40 MLOAD PUSH2 0x20F SWAP2 SWAP1 PUSH2 0xE19 JUMP JUMPDEST PUSH1 0x40 MLOAD DUP1 SWAP2 SUB SWAP1 RETURN JUMPDEST CALLVALUE DUP1 ISZERO PUSH2 0x224 JUMPI PUSH1 0x0 DUP1 REVERT JUMPDEST POP PUSH2 0x23F PUSH1 0x4 DUP1 CALLDATASIZE SUB PUSH2 0x23A SWAP2 SWAP1 DUP2 ADD SWAP1 PUSH2 0xC4D JUMP JUMPDEST PUSH2 0x72B JUMP JUMPDEST STOP JUMPDEST PUSH2 0x249 PUSH2 0x78C JUMP JUMPDEST PUSH1 0x40 MLOAD PUSH2 0x256 SWAP2 SWAP1 PUSH2 0xE3B JUMP JUMPDEST PUSH1 0x40 MLOAD DUP1 SWAP2 SUB SWAP1 RETURN JUMPDEST CALLVALUE DUP1 ISZERO PUSH2 0x26B JUMPI PUSH1 0x0 DUP1 REVERT JUMPDEST POP PUSH2 0x286 PUSH1 0x4 DUP1 CALLDATASIZE SUB PUSH2 0x281 SWAP2 SWAP1 DUP2 ADD SWAP1 PUSH2 0xCB7 JUMP JUMPDEST PUSH2 0x896 JUMP JUMPDEST STOP JUMPDEST CALLVALUE DUP1 ISZERO PUSH2 0x294 JUMPI PUSH1 0x0 DUP1 REVERT JUMPDEST POP PUSH2 0x29D PUSH2 0xB80 JUMP JUMPDEST PUSH1 0x40 MLOAD PUSH2 0x2AA SWAP2 SWAP1 PUSH2 0xE3B JUMP JUMPDEST PUSH1 0x40 MLOAD DUP1 SWAP2 SUB SWAP1 RETURN JUMPDEST PUSH1 0x0 DUP1 PUSH1 0x0 SWAP1 POP JUMPDEST PUSH1 0x2 DUP1 SLOAD SWAP1 POP DUP2 LT ISZERO PUSH2 0x4A7 JUMPI DUP3 PUSH1 0x40 MLOAD PUSH1 0x20 ADD DUP1 DUP3 DUP1 MLOAD SWAP1 PUSH1 0x20 ADD SWAP1 DUP1 DUP4 DUP4 JUMPDEST PUSH1 0x20 DUP4 LT ISZERO ISZERO PUSH2 0x301 JUMPI DUP1 MLOAD DUP3 MSTORE PUSH1 0x20 DUP3 ADD SWAP2 POP PUSH1 0x20 DUP2 ADD SWAP1 POP PUSH1 0x20 DUP4 SUB SWAP3 POP PUSH2 0x2DC JUMP JUMPDEST PUSH1 0x1 DUP4 PUSH1 0x20 SUB PUSH2 0x100 EXP SUB DUP1 NOT DUP3 MLOAD AND DUP2 DUP5 MLOAD AND DUP1 DUP3 OR DUP6 MSTORE POP POP POP POP POP POP SWAP1 POP ADD SWAP2 POP POP PUSH1 0x40 MLOAD PUSH1 0x20 DUP2 DUP4 SUB SUB DUP2 MSTORE SWAP1 PUSH1 0x40 MSTORE PUSH1 0x40 MLOAD DUP1 DUP3 DUP1 MLOAD SWAP1 PUSH1 0x20 ADD SWAP1 DUP1 DUP4 DUP4 JUMPDEST PUSH1 0x20 DUP4 LT ISZERO ISZERO PUSH2 0x36A JUMPI DUP1 MLOAD DUP3 MSTORE PUSH1 0x20 DUP3 ADD SWAP2 POP PUSH1 0x20 DUP2 ADD SWAP1 POP PUSH1 0x20 DUP4 SUB SWAP3 POP PUSH2 0x345 JUMP JUMPDEST PUSH1 0x1 DUP4 PUSH1 0x20 SUB PUSH2 0x100 EXP SUB DUP1 NOT DUP3 MLOAD AND DUP2 DUP5 MLOAD AND DUP1 DUP3 OR DUP6 MSTORE POP POP POP POP POP POP SWAP1 POP ADD SWAP2 POP POP PUSH1 0x40 MLOAD DUP1 SWAP2 SUB SWAP1 KECCAK256 PUSH1 0x0 NOT AND PUSH1 0x2 DUP3 DUP2 SLOAD DUP2 LT ISZERO ISZERO PUSH2 0x3AA JUMPI INVALID JUMPDEST SWAP1 PUSH1 0x0 MSTORE PUSH1 0x20 PUSH1 0x0 KECCAK256 ADD PUSH1 0x40 MLOAD PUSH1 0x20 ADD DUP1 DUP3 DUP1 SLOAD PUSH1 0x1 DUP2 PUSH1 0x1 AND ISZERO PUSH2 0x100 MUL SUB AND PUSH1 0x2 SWAP1 DIV DUP1 ISZERO PUSH2 0x412 JUMPI DUP1 PUSH1 0x1F LT PUSH2 0x3F0 JUMPI PUSH2 0x100 DUP1 DUP4 SLOAD DIV MUL DUP4 MSTORE SWAP2 DUP3 ADD SWAP2 PUSH2 0x412 JUMP JUMPDEST DUP3 ADD SWAP2 SWAP1 PUSH1 0x0 MSTORE PUSH1 0x20 PUSH1 0x0 KECCAK256 SWAP1 JUMPDEST DUP2 SLOAD DUP2 MSTORE SWAP1 PUSH1 0x1 ADD SWAP1 PUSH1 0x20 ADD DUP1 DUP4 GT PUSH2 0x3FE JUMPI JUMPDEST POP POP SWAP2 POP POP PUSH1 0x40 MLOAD PUSH1 0x20 DUP2 DUP4 SUB SUB DUP2 MSTORE SWAP1 PUSH1 0x40 MSTORE PUSH1 0x40 MLOAD DUP1 DUP3 DUP1 MLOAD SWAP1 PUSH1 0x20 ADD SWAP1 DUP1 DUP4 DUP4 JUMPDEST PUSH1 0x20 DUP4 LT ISZERO ISZERO PUSH2 0x45B JUMPI DUP1 MLOAD DUP3 MSTORE PUSH1 0x20 DUP3 ADD SWAP2 POP PUSH1 0x20 DUP2 ADD SWAP1 POP PUSH1 0x20 DUP4 SUB SWAP3 POP PUSH2 0x436 JUMP JUMPDEST PUSH1 0x1 DUP4 PUSH1 0x20 SUB PUSH2 0x100 EXP SUB DUP1 NOT DUP3 MLOAD AND DUP2 DUP5 MLOAD AND DUP1 DUP3 OR DUP6 MSTORE POP POP POP POP POP POP SWAP1 POP ADD SWAP2 POP POP PUSH1 0x40 MLOAD DUP1 SWAP2 SUB SWAP1 KECCAK256 PUSH1 0x0 NOT AND EQ ISZERO PUSH2 0x49A JUMPI DUP1 SWAP2 POP PUSH2 0x4CB JUMP JUMPDEST DUP1 DUP1 PUSH1 0x1 ADD SWAP2 POP POP PUSH2 0x2BB JUMP JUMPDEST PUSH32 0xFFFFFFFFFFFFFFFFFFFFFFFFFFFFFFFFFFFFFFFFFFFFFFFFFFFFFFFFFFFFFFFF SWAP2 POP JUMPDEST POP SWAP2 SWAP1 POP JUMP JUMPDEST PUSH1 0x0 PUSH1 0x1 DUP3 PUSH1 0x40 MLOAD DUP1 DUP3 DUP1 MLOAD SWAP1 PUSH1 0x20 ADD SWAP1 DUP1 DUP4 DUP4 JUMPDEST PUSH1 0x20 DUP4 LT ISZERO ISZERO PUSH2 0x50B JUMPI DUP1 MLOAD DUP3 MSTORE PUSH1 0x20 DUP3 ADD SWAP2 POP PUSH1 0x20 DUP2 ADD SWAP1 POP PUSH1 0x20 DUP4 SUB SWAP3 POP PUSH2 0x4E6 JUMP JUMPDEST PUSH1 0x1 DUP4 PUSH1 0x20 SUB PUSH2 0x100 EXP SUB DUP1 NOT DUP3 MLOAD AND DUP2 DUP5 MLOAD AND DUP1 DUP3 OR DUP6 MSTORE POP POP POP POP POP POP SWAP1 POP ADD SWAP2 POP POP SWAP1 DUP2 MSTORE PUSH1 0x20 ADD PUSH1 0x40 MLOAD DUP1 SWAP2 SUB SWAP1 KECCAK256 SLOAD SWAP1 POP SWAP2 SWAP1 POP JUMP JUMPDEST PUSH1 0x0 PUSH1 0x4 SLOAD PUSH1 0x3 SLOAD SUB SWAP1 POP SWAP1 JUMP JUMPDEST PUSH1 0x0 PUSH1 0x60 PUSH1 0x0 DUP1 DUP5 PUSH20 0xFFFFFFFFFFFFFFFFFFFFFFFFFFFFFFFFFFFFFFFF AND PUSH20 0xFFFFFFFFFFFFFFFFFFFFFFFFFFFFFFFFFFFFFFFF AND DUP2 MSTORE PUSH1 0x20 ADD SWAP1 DUP2 MSTORE PUSH1 0x20 ADD PUSH1 0x0 KECCAK256 PUSH1 0x1 ADD SLOAD PUSH1 0x0 DUP1 DUP6 PUSH20 0xFFFFFFFFFFFFFFFFFFFFFFFFFFFFFFFFFFFFFFFF AND PUSH20 0xFFFFFFFFFFFFFFFFFFFFFFFFFFFFFFFFFFFFFFFF AND DUP2 MSTORE PUSH1 0x20 ADD SWAP1 DUP2 MSTORE PUSH1 0x20 ADD PUSH1 0x0 KECCAK256 PUSH1 0x2 ADD DUP1 DUP1 SLOAD DUP1 PUSH1 0x20 MUL PUSH1 0x20 ADD PUSH1 0x40 MLOAD SWAP1 DUP2 ADD PUSH1 0x40 MSTORE DUP1 SWAP3 SWAP2 SWAP1 DUP2 DUP2 MSTORE PUSH1 0x20 ADD DUP3 DUP1 SLOAD DUP1 ISZERO PUSH2 0x626 JUMPI PUSH1 0x20 MUL DUP3 ADD SWAP2 SWAP1 PUSH1 0x0 MSTORE PUSH1 0x20 PUSH1 0x0 KECCAK256 SWAP1 JUMPDEST DUP2 SLOAD DUP2 MSTORE PUSH1 0x20 ADD SWAP1 PUSH1 0x1 ADD SWAP1 DUP1 DUP4 GT PUSH2 0x612 JUMPI JUMPDEST POP POP POP POP POP SWAP1 POP SWAP2 POP SWAP2 POP SWAP2 POP SWAP2 JUMP JUMPDEST PUSH1 0x3 SLOAD DUP2 JUMP JUMPDEST PUSH1 0x5 SLOAD DUP2 JUMP JUMPDEST PUSH1 0x60 PUSH1 0x2 DUP1 SLOAD DUP1 PUSH1 0x20 MUL PUSH1 0x20 ADD PUSH1 0x40 MLOAD SWAP1 DUP2 ADD PUSH1 0x40 MSTORE DUP1 SWAP3 SWAP2 SWAP1 DUP2 DUP2 MSTORE PUSH1 0x20 ADD PUSH1 0x0 SWAP1 JUMPDEST DUP3 DUP3 LT ISZERO PUSH2 0x722 JUMPI DUP4 DUP3 SWAP1 PUSH1 0x0 MSTORE PUSH1 0x20 PUSH1 0x0 KECCAK256 ADD DUP1 SLOAD PUSH1 0x1 DUP2 PUSH1 0x1 AND ISZERO PUSH2 0x100 MUL SUB AND PUSH1 0x2 SWAP1 DIV DUP1 PUSH1 0x1F ADD PUSH1 0x20 DUP1 SWAP2 DIV MUL PUSH1 0x20 ADD PUSH1 0x40 MLOAD SWAP1 DUP2 ADD PUSH1 0x40 MSTORE DUP1 SWAP3 SWAP2 SWAP1 DUP2 DUP2 MSTORE PUSH1 0x20 ADD DUP3 DUP1 SLOAD PUSH1 0x1 DUP2 PUSH1 0x1 AND ISZERO PUSH2 0x100 MUL SUB AND PUSH1 0x2 SWAP1 DIV DUP1 ISZERO PUSH2 0x70E JUMPI DUP1 PUSH1 0x1F LT PUSH2 0x6E3 JUMPI PUSH2 0x100 DUP1 DUP4 SLOAD DIV MUL DUP4 MSTORE SWAP2 PUSH1 0x20 ADD SWAP2 PUSH2 0x70E JUMP JUMPDEST DUP3 ADD SWAP2 SWAP1 PUSH1 0x0 MSTORE PUSH1 0x20 PUSH1 0x0 KECCAK256 SWAP1 JUMPDEST DUP2 SLOAD DUP2 MSTORE SWAP1 PUSH1 0x1 ADD SWAP1 PUSH1 0x20 ADD DUP1 DUP4 GT PUSH2 0x6F1 JUMPI DUP3 SWAP1 SUB PUSH1 0x1F AND DUP3 ADD SWAP2 JUMPDEST POP POP POP POP POP DUP2 MSTORE PUSH1 0x20 ADD SWAP1 PUSH1 0x1 ADD SWAP1 PUSH2 0x666 JUMP JUMPDEST POP POP POP POP SWAP1 POP SWAP1 JUMP JUMPDEST DUP1 PUSH20 0xFFFFFFFFFFFFFFFFFFFFFFFFFFFFFFFFFFFFFFFF AND PUSH2 0x8FC ADDRESS PUSH20 0xFFFFFFFFFFFFFFFFFFFFFFFFFFFFFFFFFFFFFFFF AND BALANCE SWAP1 DUP2 ISZERO MUL SWAP1 PUSH1 0x40 MLOAD PUSH1 0x0 PUSH1 0x40 MLOAD DUP1 DUP4 SUB DUP2 DUP6 DUP9 DUP9 CALL SWAP4 POP POP POP POP ISZERO DUP1 ISZERO PUSH2 0x788 JUMPI RETURNDATASIZE PUSH1 0x0 DUP1 RETURNDATACOPY RETURNDATASIZE PUSH1 0x0 REVERT JUMPDEST POP POP JUMP JUMPDEST PUSH1 0x0 DUP1 PUSH1 0x5 SLOAD CALLVALUE DUP2 ISZERO ISZERO PUSH2 0x79C JUMPI INVALID JUMPDEST DIV SWAP1 POP PUSH1 0x4 SLOAD DUP2 GT ISZERO ISZERO ISZERO PUSH2 0x7B0 JUMPI PUSH1 0x0 DUP1 REVERT JUMPDEST CALLER PUSH1 0x0 DUP1 CALLER PUSH20 0xFFFFFFFFFFFFFFFFFFFFFFFFFFFFFFFFFFFFFFFF AND PUSH20 0xFFFFFFFFFFFFFFFFFFFFFFFFFFFFFFFFFFFFFFFF AND DUP2 MSTORE PUSH1 0x20 ADD SWAP1 DUP2 MSTORE PUSH1 0x20 ADD PUSH1 0x0 KECCAK256 PUSH1 0x0 ADD PUSH1 0x0 PUSH2 0x100 EXP DUP2 SLOAD DUP2 PUSH20 0xFFFFFFFFFFFFFFFFFFFFFFFFFFFFFFFFFFFFFFFF MUL NOT AND SWAP1 DUP4 PUSH20 0xFFFFFFFFFFFFFFFFFFFFFFFFFFFFFFFFFFFFFFFF AND MUL OR SWAP1 SSTORE POP DUP1 PUSH1 0x0 DUP1 CALLER PUSH20 0xFFFFFFFFFFFFFFFFFFFFFFFFFFFFFFFFFFFFFFFF AND PUSH20 0xFFFFFFFFFFFFFFFFFFFFFFFFFFFFFFFFFFFFFFFF AND DUP2 MSTORE PUSH1 0x20 ADD SWAP1 DUP2 MSTORE PUSH1 0x20 ADD PUSH1 0x0 KECCAK256 PUSH1 0x1 ADD PUSH1 0x0 DUP3 DUP3 SLOAD ADD SWAP3 POP POP DUP2 SWAP1 SSTORE POP DUP1 PUSH1 0x4 PUSH1 0x0 DUP3 DUP3 SLOAD SUB SWAP3 POP POP DUP2 SWAP1 SSTORE POP DUP1 SWAP2 POP POP SWAP1 JUMP JUMPDEST PUSH1 0x0 DUP1 PUSH1 0x0 PUSH2 0x8A4 DUP6 PUSH2 0x2B3 JUMP JUMPDEST SWAP3 POP PUSH32 0xFFFFFFFFFFFFFFFFFFFFFFFFFFFFFFFFFFFFFFFFFFFFFFFFFFFFFFFFFFFFFFFF DUP4 EQ ISZERO ISZERO ISZERO PUSH2 0x8D5 JUMPI PUSH1 0x0 DUP1 REVERT JUMPDEST PUSH1 0x0 DUP1 PUSH1 0x0 CALLER PUSH20 0xFFFFFFFFFFFFFFFFFFFFFFFFFFFFFFFFFFFFFFFF AND PUSH20 0xFFFFFFFFFFFFFFFFFFFFFFFFFFFFFFFFFFFFFFFF AND DUP2 MSTORE PUSH1 0x20 ADD SWAP1 DUP2 MSTORE PUSH1 0x20 ADD PUSH1 0x0 KECCAK256 PUSH1 0x2 ADD DUP1 SLOAD SWAP1 POP EQ ISZERO PUSH2 0x9AE JUMPI PUSH1 0x0 SWAP2 POP JUMPDEST PUSH1 0x2 DUP1 SLOAD SWAP1 POP DUP3 LT ISZERO PUSH2 0x9AD JUMPI PUSH1 0x0 DUP1 CALLER PUSH20 0xFFFFFFFFFFFFFFFFFFFFFFFFFFFFFFFFFFFFFFFF AND PUSH20 0xFFFFFFFFFFFFFFFFFFFFFFFFFFFFFFFFFFFFFFFF AND DUP2 MSTORE PUSH1 0x20 ADD SWAP1 DUP2 MSTORE PUSH1 0x20 ADD PUSH1 0x0 KECCAK256 PUSH1 0x2 ADD PUSH1 0x0 SWAP1 DUP1 PUSH1 0x1 DUP2 SLOAD ADD DUP1 DUP3 SSTORE DUP1 SWAP2 POP POP SWAP1 PUSH1 0x1 DUP3 SUB SWAP1 PUSH1 0x0 MSTORE PUSH1 0x20 PUSH1 0x0 KECCAK256 ADD PUSH1 0x0 SWAP1 SWAP2 SWAP3 SWAP1 SWAP2 SWAP1 SWAP2 POP SSTORE POP DUP2 DUP1 PUSH1 0x1 ADD SWAP3 POP POP PUSH2 0x927 JUMP JUMPDEST JUMPDEST PUSH2 0xA46 PUSH1 0x0 DUP1 CALLER PUSH20 0xFFFFFFFFFFFFFFFFFFFFFFFFFFFFFFFFFFFFFFFF AND PUSH20 0xFFFFFFFFFFFFFFFFFFFFFFFFFFFFFFFFFFFFFFFF AND DUP2 MSTORE PUSH1 0x20 ADD SWAP1 DUP2 MSTORE PUSH1 0x20 ADD PUSH1 0x0 KECCAK256 PUSH1 0x2 ADD DUP1 SLOAD DUP1 PUSH1 0x20 MUL PUSH1 0x20 ADD PUSH1 0x40 MLOAD SWAP1 DUP2 ADD PUSH1 0x40 MSTORE DUP1 SWAP3 SWAP2 SWAP1 DUP2 DUP2 MSTORE PUSH1 0x20 ADD DUP3 DUP1 SLOAD DUP1 ISZERO PUSH2 0xA3C JUMPI PUSH1 0x20 MUL DUP3 ADD SWAP2 SWAP1 PUSH1 0x0 MSTORE PUSH1 0x20 PUSH1 0x0 KECCAK256 SWAP1 JUMPDEST DUP2 SLOAD DUP2 MSTORE PUSH1 0x20 ADD SWAP1 PUSH1 0x1 ADD SWAP1 DUP1 DUP4 GT PUSH2 0xA28 JUMPI JUMPDEST POP POP POP POP POP PUSH2 0xB86 JUMP JUMPDEST PUSH1 0x0 DUP1 CALLER PUSH20 0xFFFFFFFFFFFFFFFFFFFFFFFFFFFFFFFFFFFFFFFF AND PUSH20 0xFFFFFFFFFFFFFFFFFFFFFFFFFFFFFFFFFFFFFFFF AND DUP2 MSTORE PUSH1 0x20 ADD SWAP1 DUP2 MSTORE PUSH1 0x20 ADD PUSH1 0x0 KECCAK256 PUSH1 0x1 ADD SLOAD SUB SWAP1 POP DUP4 DUP2 LT ISZERO ISZERO ISZERO PUSH2 0xA9A JUMPI PUSH1 0x0 DUP1 REVERT JUMPDEST DUP4 PUSH1 0x1 DUP7 PUSH1 0x40 MLOAD DUP1 DUP3 DUP1 MLOAD SWAP1 PUSH1 0x20 ADD SWAP1 DUP1 DUP4 DUP4 JUMPDEST PUSH1 0x20 DUP4 LT ISZERO ISZERO PUSH2 0xAD3 JUMPI DUP1 MLOAD DUP3 MSTORE PUSH1 0x20 DUP3 ADD SWAP2 POP PUSH1 0x20 DUP2 ADD SWAP1 POP PUSH1 0x20 DUP4 SUB SWAP3 POP PUSH2 0xAAE JUMP JUMPDEST PUSH1 0x1 DUP4 PUSH1 0x20 SUB PUSH2 0x100 EXP SUB DUP1 NOT DUP3 MLOAD AND DUP2 DUP5 MLOAD AND DUP1 DUP3 OR DUP6 MSTORE POP POP POP POP POP POP SWAP1 POP ADD SWAP2 POP POP SWAP1 DUP2 MSTORE PUSH1 0x20 ADD PUSH1 0x40 MLOAD DUP1 SWAP2 SUB SWAP1 KECCAK256 PUSH1 0x0 DUP3 DUP3 SLOAD ADD SWAP3 POP POP DUP2 SWAP1 SSTORE POP DUP4 PUSH1 0x0 DUP1 CALLER PUSH20 0xFFFFFFFFFFFFFFFFFFFFFFFFFFFFFFFFFFFFFFFF AND PUSH20 0xFFFFFFFFFFFFFFFFFFFFFFFFFFFFFFFFFFFFFFFF AND DUP2 MSTORE PUSH1 0x20 ADD SWAP1 DUP2 MSTORE PUSH1 0x20 ADD PUSH1 0x0 KECCAK256 PUSH1 0x2 ADD DUP5 DUP2 SLOAD DUP2 LT ISZERO ISZERO PUSH2 0xB62 JUMPI INVALID JUMPDEST SWAP1 PUSH1 0x0 MSTORE PUSH1 0x20 PUSH1 0x0 KECCAK256 ADD PUSH1 0x0 DUP3 DUP3 SLOAD ADD SWAP3 POP POP DUP2 SWAP1 SSTORE POP POP POP POP POP POP JUMP JUMPDEST PUSH1 0x4 SLOAD DUP2 JUMP JUMPDEST PUSH1 0x0 DUP1 PUSH1 0x0 DUP1 SWAP2 POP PUSH1 0x0 SWAP1 POP JUMPDEST DUP4 MLOAD DUP2 LT ISZERO PUSH2 0xBC5 JUMPI DUP4 DUP2 DUP2 MLOAD DUP2 LT ISZERO ISZERO PUSH2 0xBAA JUMPI INVALID JUMPDEST SWAP1 PUSH1 0x20 ADD SWAP1 PUSH1 0x20 MUL ADD MLOAD DUP3 ADD SWAP2 POP DUP1 DUP1 PUSH1 0x1 ADD SWAP2 POP POP PUSH2 0xB93 JUMP JUMPDEST DUP2 SWAP3 POP POP POP SWAP2 SWAP1 POP JUMP JUMPDEST PUSH1 0x0 PUSH2 0xBDB DUP3 CALLDATALOAD PUSH2 0xF3E JUMP JUMPDEST SWAP1 POP SWAP3 SWAP2 POP POP JUMP JUMPDEST PUSH1 0x0 DUP3 PUSH1 0x1F DUP4 ADD SLT ISZERO ISZERO PUSH2 0xBF6 JUMPI PUSH1 0x0 DUP1 REVERT JUMPDEST DUP2 CALLDATALOAD PUSH2 0xC09 PUSH2 0xC04 DUP3 PUSH2 0xEB3 JUMP JUMPDEST PUSH2 0xE86 JUMP JUMPDEST SWAP2 POP DUP1 DUP3 MSTORE PUSH1 0x20 DUP4 ADD PUSH1 0x20 DUP4 ADD DUP6 DUP4 DUP4 ADD GT ISZERO PUSH2 0xC25 JUMPI PUSH1 0x0 DUP1 REVERT JUMPDEST PUSH2 0xC30 DUP4 DUP3 DUP5 PUSH2 0xF68 JUMP JUMPDEST POP POP POP SWAP3 SWAP2 POP POP JUMP JUMPDEST PUSH1 0x0 PUSH2 0xC45 DUP3 CALLDATALOAD PUSH2 0xF5E JUMP JUMPDEST SWAP1 POP SWAP3 SWAP2 POP POP JUMP JUMPDEST PUSH1 0x0 PUSH1 0x20 DUP3 DUP5 SUB SLT ISZERO PUSH2 0xC5F JUMPI PUSH1 0x0 DUP1 REVERT JUMPDEST PUSH1 0x0 PUSH2 0xC6D DUP5 DUP3 DUP6 ADD PUSH2 0xBCF JUMP JUMPDEST SWAP2 POP POP SWAP3 SWAP2 POP POP JUMP JUMPDEST PUSH1 0x0 PUSH1 0x20 DUP3 DUP5 SUB SLT ISZERO PUSH2 0xC88 JUMPI PUSH1 0x0 DUP1 REVERT JUMPDEST PUSH1 0x0 DUP3 ADD CALLDATALOAD PUSH8 0xFFFFFFFFFFFFFFFF DUP2 GT ISZERO PUSH2 0xCA2 JUMPI PUSH1 0x0 DUP1 REVERT JUMPDEST PUSH2 0xCAE DUP5 DUP3 DUP6 ADD PUSH2 0xBE3 JUMP JUMPDEST SWAP2 POP POP SWAP3 SWAP2 POP POP JUMP JUMPDEST PUSH1 0x0 DUP1 PUSH1 0x40 DUP4 DUP6 SUB SLT ISZERO PUSH2 0xCCA JUMPI PUSH1 0x0 DUP1 REVERT JUMPDEST PUSH1 0x0 DUP4 ADD CALLDATALOAD PUSH8 0xFFFFFFFFFFFFFFFF DUP2 GT ISZERO PUSH2 0xCE4 JUMPI PUSH1 0x0 DUP1 REVERT JUMPDEST PUSH2 0xCF0 DUP6 DUP3 DUP7 ADD PUSH2 0xBE3 JUMP JUMPDEST SWAP3 POP POP PUSH1 0x20 PUSH2 0xD01 DUP6 DUP3 DUP7 ADD PUSH2 0xC39 JUMP JUMPDEST SWAP2 POP POP SWAP3 POP SWAP3 SWAP1 POP JUMP JUMPDEST PUSH1 0x0 PUSH2 0xD16 DUP3 PUSH2 0xEF9 JUMP JUMPDEST DUP1 DUP5 MSTORE PUSH1 0x20 DUP5 ADD SWAP4 POP DUP4 PUSH1 0x20 DUP3 MUL DUP6 ADD PUSH2 0xD2F DUP6 PUSH2 0xEDF JUMP JUMPDEST PUSH1 0x0 JUMPDEST DUP5 DUP2 LT ISZERO PUSH2 0xD68 JUMPI DUP4 DUP4 SUB DUP9 MSTORE PUSH2 0xD4A DUP4 DUP4 MLOAD PUSH2 0xDD4 JUMP JUMPDEST SWAP3 POP PUSH2 0xD55 DUP3 PUSH2 0xF1A JUMP JUMPDEST SWAP2 POP PUSH1 0x20 DUP9 ADD SWAP8 POP PUSH1 0x1 DUP2 ADD SWAP1 POP PUSH2 0xD32 JUMP JUMPDEST POP DUP2 SWAP7 POP DUP7 SWAP5 POP POP POP POP POP SWAP3 SWAP2 POP POP JUMP JUMPDEST PUSH1 0x0 PUSH2 0xD84 DUP3 PUSH2 0xF04 JUMP JUMPDEST DUP1 DUP5 MSTORE PUSH1 0x20 DUP5 ADD SWAP4 POP PUSH2 0xD96 DUP4 PUSH2 0xEEC JUMP JUMPDEST PUSH1 0x0 JUMPDEST DUP3 DUP2 LT ISZERO PUSH2 0xDC8 JUMPI PUSH2 0xDAC DUP7 DUP4 MLOAD PUSH2 0xE0A JUMP JUMPDEST PUSH2 0xDB5 DUP3 PUSH2 0xF27 JUMP JUMPDEST SWAP2 POP PUSH1 0x20 DUP7 ADD SWAP6 POP PUSH1 0x1 DUP2 ADD SWAP1 POP PUSH2 0xD99 JUMP JUMPDEST POP DUP5 SWAP3 POP POP POP SWAP3 SWAP2 POP POP JUMP JUMPDEST PUSH1 0x0 PUSH2 0xDDF DUP3 PUSH2 0xF0F JUMP JUMPDEST DUP1 DUP5 MSTORE PUSH2 0xDF3 DUP2 PUSH1 0x20 DUP7 ADD PUSH1 0x20 DUP7 ADD PUSH2 0xF77 JUMP JUMPDEST PUSH2 0xDFC DUP2 PUSH2 0xFAA JUMP JUMPDEST PUSH1 0x20 DUP6 ADD ADD SWAP2 POP POP SWAP3 SWAP2 POP POP JUMP JUMPDEST PUSH2 0xE13 DUP2 PUSH2 0xF34 JUMP JUMPDEST DUP3 MSTORE POP POP JUMP JUMPDEST PUSH1 0x0 PUSH1 0x20 DUP3 ADD SWAP1 POP DUP2 DUP2 SUB PUSH1 0x0 DUP4 ADD MSTORE PUSH2 0xE33 DUP2 DUP5 PUSH2 0xD0B JUMP JUMPDEST SWAP1 POP SWAP3 SWAP2 POP POP JUMP JUMPDEST PUSH1 0x0 PUSH1 0x20 DUP3 ADD SWAP1 POP PUSH2 0xE50 PUSH1 0x0 DUP4 ADD DUP5 PUSH2 0xE0A JUMP JUMPDEST SWAP3 SWAP2 POP POP JUMP JUMPDEST PUSH1 0x0 PUSH1 0x40 DUP3 ADD SWAP1 POP PUSH2 0xE6B PUSH1 0x0 DUP4 ADD DUP6 PUSH2 0xE0A JUMP JUMPDEST DUP2 DUP2 SUB PUSH1 0x20 DUP4 ADD MSTORE PUSH2 0xE7D DUP2 DUP5 PUSH2 0xD79 JUMP JUMPDEST SWAP1 POP SWAP4 SWAP3 POP POP POP JUMP JUMPDEST PUSH1 0x0 PUSH1 0x40 MLOAD SWAP1 POP DUP2 DUP2 ADD DUP2 DUP2 LT PUSH8 0xFFFFFFFFFFFFFFFF DUP3 GT OR ISZERO PUSH2 0xEA9 JUMPI PUSH1 0x0 DUP1 REVERT JUMPDEST DUP1 PUSH1 0x40 MSTORE POP SWAP2 SWAP1 POP JUMP JUMPDEST PUSH1 0x0 PUSH8 0xFFFFFFFFFFFFFFFF DUP3 GT ISZERO PUSH2 0xECA JUMPI PUSH1 0x0 DUP1 REVERT JUMPDEST PUSH1 0x1F NOT PUSH1 0x1F DUP4 ADD AND SWAP1 POP PUSH1 0x20 DUP2 ADD SWAP1 POP SWAP2 SWAP1 POP JUMP JUMPDEST PUSH1 0x0 PUSH1 0x20 DUP3 ADD SWAP1 POP SWAP2 SWAP1 POP JUMP JUMPDEST PUSH1 0x0 PUSH1 0x20 DUP3 ADD SWAP1 POP SWAP2 SWAP1 POP JUMP JUMPDEST PUSH1 0x0 DUP2 MLOAD SWAP1 POP SWAP2 SWAP1 POP JUMP JUMPDEST PUSH1 0x0 DUP2 MLOAD SWAP1 POP SWAP2 SWAP1 POP JUMP JUMPDEST PUSH1 0x0 DUP2 MLOAD SWAP1 POP SWAP2 SWAP1 POP JUMP JUMPDEST PUSH1 0x0 PUSH1 0x20 DUP3 ADD SWAP1 POP SWAP2 SWAP1 POP JUMP JUMPDEST PUSH1 0x0 PUSH1 0x20 DUP3 ADD SWAP1 POP SWAP2 SWAP1 POP JUMP JUMPDEST PUSH1 0x0 DUP2 SWAP1 POP SWAP2 SWAP1 POP JUMP JUMPDEST PUSH1 0x0 PUSH20 0xFFFFFFFFFFFFFFFFFFFFFFFFFFFFFFFFFFFFFFFF DUP3 AND SWAP1 POP SWAP2 SWAP1 POP JUMP JUMPDEST PUSH1 0x0 DUP2 SWAP1 POP SWAP2 SWAP1 POP JUMP JUMPDEST DUP3 DUP2 DUP4 CALLDATACOPY PUSH1 0x0 DUP4 DUP4 ADD MSTORE POP POP POP JUMP JUMPDEST PUSH1 0x0 JUMPDEST DUP4 DUP2 LT ISZERO PUSH2 0xF95 JUMPI DUP1 DUP3 ADD MLOAD DUP2 DUP5 ADD MSTORE PUSH1 0x20 DUP2 ADD SWAP1 POP PUSH2 0xF7A JUMP JUMPDEST DUP4 DUP2 GT ISZERO PUSH2 0xFA4 JUMPI PUSH1 0x0 DUP5 DUP5 ADD MSTORE JUMPDEST POP POP POP POP JUMP JUMPDEST PUSH1 0x0 PUSH1 0x1F NOT PUSH1 0x1F DUP4 ADD AND SWAP1 POP SWAP2 SWAP1 POP JUMP STOP LOG2 PUSH6 0x627A7A723058 KECCAK256 PUSH7 0x3369271CD00AA2 SLOAD 0xd1 SHR PUSH27 0xE719A98B900039B2284786A13D95E46E5519B76A6C657870657269 PUSH14 0x656E74616CF50037000000000000 "
				},
				"gasEstimates": {
					"creation": {
						"codeDepositCost": "817000",
						"executionCost": "infinite",
						"totalCost": "infinite"
					},
					"external": {
						"allCandidates()": "infinite",
						"balanceTokens()": "738",
						"buy()": "61875",
						"indexOfCandidate(string)": "infinite",
						"tokenPrice()": "628",
						"tokensSold()": "776",
						"totalTokens()": "606",
						"totalVotesFor(string)": "infinite",
						"transferTo(address)": "infinite",
						"voteForCandidate(string,uint256)": "infinite",
						"voterDetails(address)": "infinite"
					},
					"internal": {
						"totalTokensUsed(uint256[] memory)": "infinite"
					}
				},
				"methodIdentifiers": {
					"allCandidates()": "81c40715",
					"balanceTokens()": "e4494a0f",
					"buy()": "a6f2ae3a",
					"indexOfCandidate(string)": "2f506b6f",
					"tokenPrice()": "7ff9b596",
					"tokensSold()": "518ab2a8",
					"totalTokens()": "7e1c0c09",
					"totalVotesFor(string)": "4a3bf377",
					"transferTo(address)": "a03fa7e3",
					"voteForCandidate(string,uint256)": "d1d1a39d",
					"voterDetails(address)": "5938750d"
				}
			},
			"userdoc": {
				"methods": {}
			}
		}
	}
}